{
  "_format": "hh-sol-artifact-1",
  "contractName": "TestToken",
  "sourceName": "contracts/TestToken.sol",
  "abi": [
    {
      "inputs": [
        {
          "internalType": "uint256",
          "name": "initialSupply",
          "type": "uint256"
        },
        {
          "internalType": "string",
          "name": "name",
          "type": "string"
        },
        {
          "internalType": "string",
          "name": "symbol",
          "type": "string"
        }
      ],
      "stateMutability": "nonpayable",
      "type": "constructor"
    },
    {
      "anonymous": false,
      "inputs": [
        {
          "indexed": true,
          "internalType": "address",
          "name": "owner",
          "type": "address"
        },
        {
          "indexed": true,
          "internalType": "address",
          "name": "spender",
          "type": "address"
        },
        {
          "indexed": false,
          "internalType": "uint256",
          "name": "value",
          "type": "uint256"
        }
      ],
      "name": "Approval",
      "type": "event"
    },
    {
      "anonymous": false,
      "inputs": [
        {
          "indexed": false,
          "internalType": "address",
          "name": "account",
          "type": "address"
        }
      ],
      "name": "Paused",
      "type": "event"
    },
    {
      "anonymous": false,
      "inputs": [
        {
          "indexed": true,
          "internalType": "bytes32",
          "name": "role",
          "type": "bytes32"
        },
        {
          "indexed": true,
          "internalType": "bytes32",
          "name": "previousAdminRole",
          "type": "bytes32"
        },
        {
          "indexed": true,
          "internalType": "bytes32",
          "name": "newAdminRole",
          "type": "bytes32"
        }
      ],
      "name": "RoleAdminChanged",
      "type": "event"
    },
    {
      "anonymous": false,
      "inputs": [
        {
          "indexed": true,
          "internalType": "bytes32",
          "name": "role",
          "type": "bytes32"
        },
        {
          "indexed": true,
          "internalType": "address",
          "name": "account",
          "type": "address"
        },
        {
          "indexed": true,
          "internalType": "address",
          "name": "sender",
          "type": "address"
        }
      ],
      "name": "RoleGranted",
      "type": "event"
    },
    {
      "anonymous": false,
      "inputs": [
        {
          "indexed": true,
          "internalType": "bytes32",
          "name": "role",
          "type": "bytes32"
        },
        {
          "indexed": true,
          "internalType": "address",
          "name": "account",
          "type": "address"
        },
        {
          "indexed": true,
          "internalType": "address",
          "name": "sender",
          "type": "address"
        }
      ],
      "name": "RoleRevoked",
      "type": "event"
    },
    {
      "anonymous": false,
      "inputs": [
        {
          "indexed": true,
          "internalType": "address",
          "name": "from",
          "type": "address"
        },
        {
          "indexed": true,
          "internalType": "address",
          "name": "to",
          "type": "address"
        },
        {
          "indexed": false,
          "internalType": "uint256",
          "name": "value",
          "type": "uint256"
        }
      ],
      "name": "Transfer",
      "type": "event"
    },
    {
      "anonymous": false,
      "inputs": [
        {
          "indexed": false,
          "internalType": "address",
          "name": "account",
          "type": "address"
        }
      ],
      "name": "Unpaused",
      "type": "event"
    },
    {
      "inputs": [],
      "name": "DEFAULT_ADMIN_ROLE",
      "outputs": [
        {
          "internalType": "bytes32",
          "name": "",
          "type": "bytes32"
        }
      ],
      "stateMutability": "view",
      "type": "function"
    },
    {
      "inputs": [],
      "name": "MINTER_ROLE",
      "outputs": [
        {
          "internalType": "bytes32",
          "name": "",
          "type": "bytes32"
        }
      ],
      "stateMutability": "view",
      "type": "function"
    },
    {
      "inputs": [],
      "name": "PAUSER_ROLE",
      "outputs": [
        {
          "internalType": "bytes32",
          "name": "",
          "type": "bytes32"
        }
      ],
      "stateMutability": "view",
      "type": "function"
    },
    {
      "inputs": [
        {
          "internalType": "address",
          "name": "owner",
          "type": "address"
        },
        {
          "internalType": "address",
          "name": "spender",
          "type": "address"
        }
      ],
      "name": "allowance",
      "outputs": [
        {
          "internalType": "uint256",
          "name": "",
          "type": "uint256"
        }
      ],
      "stateMutability": "view",
      "type": "function"
    },
    {
      "inputs": [
        {
          "internalType": "address",
          "name": "spender",
          "type": "address"
        },
        {
          "internalType": "uint256",
          "name": "amount",
          "type": "uint256"
        }
      ],
      "name": "approve",
      "outputs": [
        {
          "internalType": "bool",
          "name": "",
          "type": "bool"
        }
      ],
      "stateMutability": "nonpayable",
      "type": "function"
    },
    {
      "inputs": [
        {
          "internalType": "address",
          "name": "account",
          "type": "address"
        }
      ],
      "name": "balanceOf",
      "outputs": [
        {
          "internalType": "uint256",
          "name": "",
          "type": "uint256"
        }
      ],
      "stateMutability": "view",
      "type": "function"
    },
    {
      "inputs": [
        {
          "internalType": "uint256",
          "name": "amount",
          "type": "uint256"
        }
      ],
      "name": "burn",
      "outputs": [],
      "stateMutability": "nonpayable",
      "type": "function"
    },
    {
      "inputs": [
        {
          "internalType": "address",
          "name": "account",
          "type": "address"
        },
        {
          "internalType": "uint256",
          "name": "amount",
          "type": "uint256"
        }
      ],
      "name": "burnFrom",
      "outputs": [],
      "stateMutability": "nonpayable",
      "type": "function"
    },
    {
      "inputs": [],
      "name": "decimals",
      "outputs": [
        {
          "internalType": "uint8",
          "name": "",
          "type": "uint8"
        }
      ],
      "stateMutability": "view",
      "type": "function"
    },
    {
      "inputs": [
        {
          "internalType": "address",
          "name": "spender",
          "type": "address"
        },
        {
          "internalType": "uint256",
          "name": "subtractedValue",
          "type": "uint256"
        }
      ],
      "name": "decreaseAllowance",
      "outputs": [
        {
          "internalType": "bool",
          "name": "",
          "type": "bool"
        }
      ],
      "stateMutability": "nonpayable",
      "type": "function"
    },
    {
      "inputs": [
        {
          "internalType": "bytes32",
          "name": "role",
          "type": "bytes32"
        }
      ],
      "name": "getRoleAdmin",
      "outputs": [
        {
          "internalType": "bytes32",
          "name": "",
          "type": "bytes32"
        }
      ],
      "stateMutability": "view",
      "type": "function"
    },
    {
      "inputs": [
        {
          "internalType": "bytes32",
          "name": "role",
          "type": "bytes32"
        },
        {
          "internalType": "uint256",
          "name": "index",
          "type": "uint256"
        }
      ],
      "name": "getRoleMember",
      "outputs": [
        {
          "internalType": "address",
          "name": "",
          "type": "address"
        }
      ],
      "stateMutability": "view",
      "type": "function"
    },
    {
      "inputs": [
        {
          "internalType": "bytes32",
          "name": "role",
          "type": "bytes32"
        }
      ],
      "name": "getRoleMemberCount",
      "outputs": [
        {
          "internalType": "uint256",
          "name": "",
          "type": "uint256"
        }
      ],
      "stateMutability": "view",
      "type": "function"
    },
    {
      "inputs": [
        {
          "internalType": "bytes32",
          "name": "role",
          "type": "bytes32"
        },
        {
          "internalType": "address",
          "name": "account",
          "type": "address"
        }
      ],
      "name": "grantRole",
      "outputs": [],
      "stateMutability": "nonpayable",
      "type": "function"
    },
    {
      "inputs": [
        {
          "internalType": "bytes32",
          "name": "role",
          "type": "bytes32"
        },
        {
          "internalType": "address",
          "name": "account",
          "type": "address"
        }
      ],
      "name": "hasRole",
      "outputs": [
        {
          "internalType": "bool",
          "name": "",
          "type": "bool"
        }
      ],
      "stateMutability": "view",
      "type": "function"
    },
    {
      "inputs": [
        {
          "internalType": "address",
          "name": "spender",
          "type": "address"
        },
        {
          "internalType": "uint256",
          "name": "addedValue",
          "type": "uint256"
        }
      ],
      "name": "increaseAllowance",
      "outputs": [
        {
          "internalType": "bool",
          "name": "",
          "type": "bool"
        }
      ],
      "stateMutability": "nonpayable",
      "type": "function"
    },
    {
      "inputs": [
        {
          "internalType": "address",
          "name": "to",
          "type": "address"
        },
        {
          "internalType": "uint256",
          "name": "amount",
          "type": "uint256"
        }
      ],
      "name": "mint",
      "outputs": [],
      "stateMutability": "nonpayable",
      "type": "function"
    },
    {
      "inputs": [],
      "name": "name",
      "outputs": [
        {
          "internalType": "string",
          "name": "",
          "type": "string"
        }
      ],
      "stateMutability": "view",
      "type": "function"
    },
    {
      "inputs": [],
      "name": "owner",
      "outputs": [
        {
          "internalType": "address",
          "name": "",
          "type": "address"
        }
      ],
      "stateMutability": "view",
      "type": "function"
    },
    {
      "inputs": [],
      "name": "pause",
      "outputs": [],
      "stateMutability": "nonpayable",
      "type": "function"
    },
    {
      "inputs": [],
      "name": "paused",
      "outputs": [
        {
          "internalType": "bool",
          "name": "",
          "type": "bool"
        }
      ],
      "stateMutability": "view",
      "type": "function"
    },
    {
      "inputs": [
        {
          "internalType": "bytes32",
          "name": "role",
          "type": "bytes32"
        },
        {
          "internalType": "address",
          "name": "account",
          "type": "address"
        }
      ],
      "name": "renounceRole",
      "outputs": [],
      "stateMutability": "nonpayable",
      "type": "function"
    },
    {
      "inputs": [
        {
          "internalType": "bytes32",
          "name": "role",
          "type": "bytes32"
        },
        {
          "internalType": "address",
          "name": "account",
          "type": "address"
        }
      ],
      "name": "revokeRole",
      "outputs": [],
      "stateMutability": "nonpayable",
      "type": "function"
    },
    {
      "inputs": [
        {
          "internalType": "bytes4",
          "name": "interfaceId",
          "type": "bytes4"
        }
      ],
      "name": "supportsInterface",
      "outputs": [
        {
          "internalType": "bool",
          "name": "",
          "type": "bool"
        }
      ],
      "stateMutability": "view",
      "type": "function"
    },
    {
      "inputs": [],
      "name": "symbol",
      "outputs": [
        {
          "internalType": "string",
          "name": "",
          "type": "string"
        }
      ],
      "stateMutability": "view",
      "type": "function"
    },
    {
      "inputs": [],
      "name": "totalSupply",
      "outputs": [
        {
          "internalType": "uint256",
          "name": "",
          "type": "uint256"
        }
      ],
      "stateMutability": "view",
      "type": "function"
    },
    {
      "inputs": [
        {
          "internalType": "address",
          "name": "recipient",
          "type": "address"
        },
        {
          "internalType": "uint256",
          "name": "amount",
          "type": "uint256"
        }
      ],
      "name": "transfer",
      "outputs": [
        {
          "internalType": "bool",
          "name": "",
          "type": "bool"
        }
      ],
      "stateMutability": "nonpayable",
      "type": "function"
    },
    {
      "inputs": [
        {
          "internalType": "address",
          "name": "sender",
          "type": "address"
        },
        {
          "internalType": "address",
          "name": "recipient",
          "type": "address"
        },
        {
          "internalType": "uint256",
          "name": "amount",
          "type": "uint256"
        }
      ],
      "name": "transferFrom",
      "outputs": [
        {
          "internalType": "bool",
          "name": "",
          "type": "bool"
        }
      ],
      "stateMutability": "nonpayable",
      "type": "function"
    },
    {
      "inputs": [],
      "name": "unpause",
      "outputs": [],
      "stateMutability": "nonpayable",
      "type": "function"
    }
  ],
  "bytecode": "0x60806040523480156200001157600080fd5b5060405162003f4d38038062003f4d83398181016040528101906200003791906200076c565b8181818181600590805190602001906200005392919062000633565b5080600690805190602001906200006c92919062000633565b5050506000600760006101000a81548160ff021916908315150217905550620000ae6000801b620000a26200018e60201b60201c565b6200019660201b60201c565b620000ef7f9f2df0fed2c77648de5860a4cc508cd0818c85b8b8a1ab4ceeef8d981c8956a6620000e36200018e60201b60201c565b6200019660201b60201c565b620001307f65d7a28e3265b37a6474929f336521b332c1681b933f6cb9f3376673440d862a620001246200018e60201b60201c565b6200019660201b60201c565b5050620001443384620001de60201b60201c565b33600760016101000a81548173ffffffffffffffffffffffffffffffffffffffff021916908373ffffffffffffffffffffffffffffffffffffffff16021790555050505062000b02565b600033905090565b620001ad82826200034460201b62000f4a1760201c565b620001d981600160008581526020019081526020016000206200035a60201b62000f581790919060201c565b505050565b600073ffffffffffffffffffffffffffffffffffffffff168273ffffffffffffffffffffffffffffffffffffffff16141562000251576040517f08c379a00000000000000000000000000000000000000000000000000000000081526004016200024890620008af565b60405180910390fd5b62000265600083836200039260201b60201c565b806004600082825462000279919062000988565b9250508190555080600260008473ffffffffffffffffffffffffffffffffffffffff1673ffffffffffffffffffffffffffffffffffffffff1681526020019081526020016000206000828254620002d1919062000988565b925050819055508173ffffffffffffffffffffffffffffffffffffffff16600073ffffffffffffffffffffffffffffffffffffffff167fddf252ad1be2c89b69c2b068fc378daa952ba7f163c4a11628f55a4df523b3ef83604051620003389190620008f3565b60405180910390a35050565b620003568282620003af60201b60201c565b5050565b60006200038a836000018373ffffffffffffffffffffffffffffffffffffffff1660001b620004a060201b60201c565b905092915050565b620003aa8383836200051a60201b62000f881760201c565b505050565b620003c182826200058a60201b60201c565b6200049c57600160008084815260200190815260200160002060000160008373ffffffffffffffffffffffffffffffffffffffff1673ffffffffffffffffffffffffffffffffffffffff16815260200190815260200160002060006101000a81548160ff021916908315150217905550620004416200018e60201b60201c565b73ffffffffffffffffffffffffffffffffffffffff168173ffffffffffffffffffffffffffffffffffffffff16837f2f8788117e7eff1d82e926ec794901d17c78024a50270940304540a733656f0d60405160405180910390a45b5050565b6000620004b48383620005f460201b60201c565b6200050f57826000018290806001815401808255809150506001900390600052602060002001600090919091909150558260000180549050836001016000848152602001908152602001600020819055506001905062000514565b600090505b92915050565b620005328383836200061760201b62000fe01760201c565b620005426200061c60201b60201c565b1562000585576040517f08c379a00000000000000000000000000000000000000000000000000000000081526004016200057c90620008d1565b60405180910390fd5b505050565b600080600084815260200190815260200160002060000160008373ffffffffffffffffffffffffffffffffffffffff1673ffffffffffffffffffffffffffffffffffffffff16815260200190815260200160002060009054906101000a900460ff16905092915050565b600080836001016000848152602001908152602001600020541415905092915050565b505050565b6000600760009054906101000a900460ff16905090565b828054620006419062000a25565b90600052602060002090601f016020900481019282620006655760008555620006b1565b82601f106200068057805160ff1916838001178555620006b1565b82800160010185558215620006b1579182015b82811115620006b057825182559160200191906001019062000693565b5b509050620006c09190620006c4565b5090565b5b80821115620006df576000816000905550600101620006c5565b5090565b6000620006fa620006f48462000944565b62000910565b9050828152602081018484840111156200071357600080fd5b62000720848285620009ef565b509392505050565b600082601f8301126200073a57600080fd5b81516200074c848260208601620006e3565b91505092915050565b600081519050620007668162000ae8565b92915050565b6000806000606084860312156200078257600080fd5b6000620007928682870162000755565b935050602084015167ffffffffffffffff811115620007b057600080fd5b620007be8682870162000728565b925050604084015167ffffffffffffffff811115620007dc57600080fd5b620007ea8682870162000728565b9150509250925092565b600062000803601f8362000977565b91507f45524332303a206d696e7420746f20746865207a65726f2061646472657373006000830152602082019050919050565b600062000845602a8362000977565b91507f45524332305061757361626c653a20746f6b656e207472616e7366657220776860008301527f696c6520706175736564000000000000000000000000000000000000000000006020830152604082019050919050565b620008a981620009e5565b82525050565b60006020820190508181036000830152620008ca81620007f4565b9050919050565b60006020820190508181036000830152620008ec8162000836565b9050919050565b60006020820190506200090a60008301846200089e565b92915050565b6000604051905081810181811067ffffffffffffffff821117156200093a576200093962000ab9565b5b8060405250919050565b600067ffffffffffffffff82111562000962576200096162000ab9565b5b601f19601f8301169050602081019050919050565b600082825260208201905092915050565b60006200099582620009e5565b9150620009a283620009e5565b9250827fffffffffffffffffffffffffffffffffffffffffffffffffffffffffffffffff03821115620009da57620009d962000a5b565b5b828201905092915050565b6000819050919050565b60005b8381101562000a0f578082015181840152602081019050620009f2565b8381111562000a1f576000848401525b50505050565b6000600282049050600182168062000a3e57607f821691505b6020821081141562000a555762000a5462000a8a565b5b50919050565b7f4e487b7100000000000000000000000000000000000000000000000000000000600052601160045260246000fd5b7f4e487b7100000000000000000000000000000000000000000000000000000000600052602260045260246000fd5b7f4e487b7100000000000000000000000000000000000000000000000000000000600052604160045260246000fd5b62000af381620009e5565b811462000aff57600080fd5b50565b61343b8062000b126000396000f3fe608060405234801561001057600080fd5b50600436106101cf5760003560e01c806370a0823111610104578063a217fddf116100a2578063d539139311610071578063d539139314610556578063d547741f14610574578063dd62ed3e14610590578063e63ab1e9146105c0576101cf565b8063a217fddf146104a8578063a457c2d7146104c6578063a9059cbb146104f6578063ca15c87314610526576101cf565b80638da5cb5b116100de5780638da5cb5b1461040c5780639010d07c1461042a57806391d148541461045a57806395d89b411461048a576101cf565b806370a08231146103b657806379cc6790146103e65780638456cb5914610402576101cf565b8063313ce567116101715780633f4ba83a1161014b5780633f4ba83a1461035657806340c10f191461036057806342966c681461037c5780635c975abb14610398576101cf565b8063313ce567146102ec57806336568abe1461030a5780633950935114610326576101cf565b806318160ddd116101ad57806318160ddd1461025257806323b872dd14610270578063248a9ca3146102a05780632f2ff15d146102d0576101cf565b806301ffc9a7146101d457806306fdde0314610204578063095ea7b314610222575b600080fd5b6101ee60048036038101906101e991906124cb565b6105de565b6040516101fb9190612e07565b60405180910390f35b61020c610658565b6040516102199190612e3d565b60405180910390f35b61023c600480360381019061023791906123ee565b6106ea565b6040516102499190612e07565b60405180910390f35b61025a610708565b60405161026791906130df565b60405180910390f35b61028a6004803603810190610285919061239f565b610712565b6040516102979190612e07565b60405180910390f35b6102ba60048036038101906102b5919061242a565b610813565b6040516102c79190612e22565b60405180910390f35b6102ea60048036038101906102e59190612453565b610832565b005b6102f4610866565b60405161030191906130fa565b60405180910390f35b610324600480360381019061031f9190612453565b61086f565b005b610340600480360381019061033b91906123ee565b6108a3565b60405161034d9190612e07565b60405180910390f35b61035e61094f565b005b61037a600480360381019061037591906123ee565b6109c9565b005b610396600480360381019061039191906124f4565b610a47565b005b6103a0610a5b565b6040516103ad9190612e07565b60405180910390f35b6103d060048036038101906103cb919061233a565b610a72565b6040516103dd91906130df565b60405180910390f35b61040060048036038101906103fb91906123ee565b610abb565b005b61040a610b3f565b005b610414610bb9565b6040516104219190612dec565b60405180910390f35b610444600480360381019061043f919061248f565b610bdf565b6040516104519190612dec565b60405180910390f35b610474600480360381019061046f9190612453565b610c0e565b6040516104819190612e07565b60405180910390f35b610492610c78565b60405161049f9190612e3d565b60405180910390f35b6104b0610d0a565b6040516104bd9190612e22565b60405180910390f35b6104e060048036038101906104db91906123ee565b610d11565b6040516104ed9190612e07565b60405180910390f35b610510600480360381019061050b91906123ee565b610e05565b60405161051d9190612e07565b60405180910390f35b610540600480360381019061053b919061242a565b610e23565b60405161054d91906130df565b60405180910390f35b61055e610e47565b60405161056b9190612e22565b60405180910390f35b61058e60048036038101906105899190612453565b610e6b565b005b6105aa60048036038101906105a59190612363565b610e9f565b6040516105b791906130df565b60405180910390f35b6105c8610f26565b6040516105d59190612e22565b60405180910390f35b60007f5a05180f000000000000000000000000000000000000000000000000000000007bffffffffffffffffffffffffffffffffffffffffffffffffffffffff1916827bffffffffffffffffffffffffffffffffffffffffffffffffffffffff19161480610651575061065082610fe5565b5b9050919050565b60606005805461066790613308565b80601f016020809104026020016040519081016040528092919081815260200182805461069390613308565b80156106e05780601f106106b5576101008083540402835291602001916106e0565b820191906000526020600020905b8154815290600101906020018083116106c357829003601f168201915b5050505050905090565b60006106fe6106f761105f565b8484611067565b6001905092915050565b6000600454905090565b600061071f848484611232565b6000600360008673ffffffffffffffffffffffffffffffffffffffff1673ffffffffffffffffffffffffffffffffffffffff168152602001908152602001600020600061076a61105f565b73ffffffffffffffffffffffffffffffffffffffff1673ffffffffffffffffffffffffffffffffffffffff168152602001908152602001600020549050828110156107ea576040517f08c379a00000000000000000000000000000000000000000000000000000000081526004016107e190612f7f565b60405180910390fd5b610807856107f661105f565b858461080291906131ec565b611067565b60019150509392505050565b6000806000838152602001908152602001600020600101549050919050565b61083c82826114b4565b6108618160016000858152602001908152602001600020610f5890919063ffffffff16565b505050565b60006012905090565b61087982826114dd565b61089e816001600085815260200190815260200160002061156090919063ffffffff16565b505050565b60006109456108b061105f565b8484600360006108be61105f565b73ffffffffffffffffffffffffffffffffffffffff1673ffffffffffffffffffffffffffffffffffffffff16815260200190815260200160002060008873ffffffffffffffffffffffffffffffffffffffff1673ffffffffffffffffffffffffffffffffffffffff16815260200190815260200160002054610940919061313c565b611067565b6001905092915050565b6109807f65d7a28e3265b37a6474929f336521b332c1681b933f6cb9f3376673440d862a61097b61105f565b610c0e565b6109bf576040517f08c379a00000000000000000000000000000000000000000000000000000000081526004016109b690612eff565b60405180910390fd5b6109c7611590565b565b6109fa7f9f2df0fed2c77648de5860a4cc508cd0818c85b8b8a1ab4ceeef8d981c8956a66109f561105f565b610c0e565b610a39576040517f08c379a0000000000000000000000000000000000000000000000000000000008152600401610a3090612f9f565b60405180910390fd5b610a438282611632565b5050565b610a58610a5261105f565b82611787565b50565b6000600760009054906101000a900460ff16905090565b6000600260008373ffffffffffffffffffffffffffffffffffffffff1673ffffffffffffffffffffffffffffffffffffffff168152602001908152602001600020549050919050565b6000610ace83610ac961105f565b610e9f565b905081811015610b13576040517f08c379a0000000000000000000000000000000000000000000000000000000008152600401610b0a90612fbf565b60405180910390fd5b610b3083610b1f61105f565b8484610b2b91906131ec565b611067565b610b3a8383611787565b505050565b610b707f65d7a28e3265b37a6474929f336521b332c1681b933f6cb9f3376673440d862a610b6b61105f565b610c0e565b610baf576040517f08c379a0000000000000000000000000000000000000000000000000000000008152600401610ba69061303f565b60405180910390fd5b610bb761195d565b565b600760019054906101000a900473ffffffffffffffffffffffffffffffffffffffff1681565b6000610c068260016000868152602001908152602001600020611a0090919063ffffffff16565b905092915050565b600080600084815260200190815260200160002060000160008373ffffffffffffffffffffffffffffffffffffffff1673ffffffffffffffffffffffffffffffffffffffff16815260200190815260200160002060009054906101000a900460ff16905092915050565b606060068054610c8790613308565b80601f0160208091040260200160405190810160405280929190818152602001828054610cb390613308565b8015610d005780601f10610cd557610100808354040283529160200191610d00565b820191906000526020600020905b815481529060010190602001808311610ce357829003601f168201915b5050505050905090565b6000801b81565b60008060036000610d2061105f565b73ffffffffffffffffffffffffffffffffffffffff1673ffffffffffffffffffffffffffffffffffffffff16815260200190815260200160002060008573ffffffffffffffffffffffffffffffffffffffff1673ffffffffffffffffffffffffffffffffffffffff16815260200190815260200160002054905082811015610ddd576040517f08c379a0000000000000000000000000000000000000000000000000000000008152600401610dd49061305f565b60405180910390fd5b610dfa610de861105f565b858584610df591906131ec565b611067565b600191505092915050565b6000610e19610e1261105f565b8484611232565b6001905092915050565b6000610e4060016000848152602001908152602001600020611a1a565b9050919050565b7f9f2df0fed2c77648de5860a4cc508cd0818c85b8b8a1ab4ceeef8d981c8956a681565b610e758282611a2f565b610e9a816001600085815260200190815260200160002061156090919063ffffffff16565b505050565b6000600360008473ffffffffffffffffffffffffffffffffffffffff1673ffffffffffffffffffffffffffffffffffffffff16815260200190815260200160002060008373ffffffffffffffffffffffffffffffffffffffff1673ffffffffffffffffffffffffffffffffffffffff16815260200190815260200160002054905092915050565b7f65d7a28e3265b37a6474929f336521b332c1681b933f6cb9f3376673440d862a81565b610f548282611a58565b5050565b6000610f80836000018373ffffffffffffffffffffffffffffffffffffffff1660001b611b38565b905092915050565b610f93838383610fe0565b610f9b610a5b565b15610fdb576040517f08c379a0000000000000000000000000000000000000000000000000000000008152600401610fd2906130bf565b60405180910390fd5b505050565b505050565b60007f7965db0b000000000000000000000000000000000000000000000000000000007bffffffffffffffffffffffffffffffffffffffffffffffffffffffff1916827bffffffffffffffffffffffffffffffffffffffffffffffffffffffff19161480611058575061105782611ba8565b5b9050919050565b600033905090565b600073ffffffffffffffffffffffffffffffffffffffff168373ffffffffffffffffffffffffffffffffffffffff1614156110d7576040517f08c379a00000000000000000000000000000000000000000000000000000000081526004016110ce9061301f565b60405180910390fd5b600073ffffffffffffffffffffffffffffffffffffffff168273ffffffffffffffffffffffffffffffffffffffff161415611147576040517f08c379a000000000000000000000000000000000000000000000000000000000815260040161113e90612f1f565b60405180910390fd5b80600360008573ffffffffffffffffffffffffffffffffffffffff1673ffffffffffffffffffffffffffffffffffffffff16815260200190815260200160002060008473ffffffffffffffffffffffffffffffffffffffff1673ffffffffffffffffffffffffffffffffffffffff168152602001908152602001600020819055508173ffffffffffffffffffffffffffffffffffffffff168373ffffffffffffffffffffffffffffffffffffffff167f8c5be1e5ebec7d5bd14f71427d1e84f3dd0314c0f7b2291e5b200ac8c7c3b9258360405161122591906130df565b60405180910390a3505050565b600073ffffffffffffffffffffffffffffffffffffffff168373ffffffffffffffffffffffffffffffffffffffff1614156112a2576040517f08c379a000000000000000000000000000000000000000000000000000000000815260040161129990612fff565b60405180910390fd5b600073ffffffffffffffffffffffffffffffffffffffff168273ffffffffffffffffffffffffffffffffffffffff161415611312576040517f08c379a000000000000000000000000000000000000000000000000000000000815260040161130990612e9f565b60405180910390fd5b61131d838383611c12565b6000600260008573ffffffffffffffffffffffffffffffffffffffff1673ffffffffffffffffffffffffffffffffffffffff168152602001908152602001600020549050818110156113a4576040517f08c379a000000000000000000000000000000000000000000000000000000000815260040161139b90612f3f565b60405180910390fd5b81816113b091906131ec565b600260008673ffffffffffffffffffffffffffffffffffffffff1673ffffffffffffffffffffffffffffffffffffffff1681526020019081526020016000208190555081600260008573ffffffffffffffffffffffffffffffffffffffff1673ffffffffffffffffffffffffffffffffffffffff1681526020019081526020016000206000828254611442919061313c565b925050819055508273ffffffffffffffffffffffffffffffffffffffff168473ffffffffffffffffffffffffffffffffffffffff167fddf252ad1be2c89b69c2b068fc378daa952ba7f163c4a11628f55a4df523b3ef846040516114a691906130df565b60405180910390a350505050565b6114bd82610813565b6114ce816114c961105f565b611c22565b6114d88383611a58565b505050565b6114e561105f565b73ffffffffffffffffffffffffffffffffffffffff168173ffffffffffffffffffffffffffffffffffffffff1614611552576040517f08c379a00000000000000000000000000000000000000000000000000000000081526004016115499061307f565b60405180910390fd5b61155c8282611cbf565b5050565b6000611588836000018373ffffffffffffffffffffffffffffffffffffffff1660001b611da0565b905092915050565b611598610a5b565b6115d7576040517f08c379a00000000000000000000000000000000000000000000000000000000081526004016115ce90612ebf565b60405180910390fd5b6000600760006101000a81548160ff0219169083151502179055507f5db9ee0a495bf2e6ff9c91a7834c1ba4fdd244a5e8aa4e537bd38aeae4b073aa61161b61105f565b6040516116289190612dec565b60405180910390a1565b600073ffffffffffffffffffffffffffffffffffffffff168273ffffffffffffffffffffffffffffffffffffffff1614156116a2576040517f08c379a00000000000000000000000000000000000000000000000000000000081526004016116999061309f565b60405180910390fd5b6116ae60008383611c12565b80600460008282546116c0919061313c565b9250508190555080600260008473ffffffffffffffffffffffffffffffffffffffff1673ffffffffffffffffffffffffffffffffffffffff1681526020019081526020016000206000828254611716919061313c565b925050819055508173ffffffffffffffffffffffffffffffffffffffff16600073ffffffffffffffffffffffffffffffffffffffff167fddf252ad1be2c89b69c2b068fc378daa952ba7f163c4a11628f55a4df523b3ef8360405161177b91906130df565b60405180910390a35050565b600073ffffffffffffffffffffffffffffffffffffffff168273ffffffffffffffffffffffffffffffffffffffff1614156117f7576040517f08c379a00000000000000000000000000000000000000000000000000000000081526004016117ee90612fdf565b60405180910390fd5b61180382600083611c12565b6000600260008473ffffffffffffffffffffffffffffffffffffffff1673ffffffffffffffffffffffffffffffffffffffff1681526020019081526020016000205490508181101561188a576040517f08c379a000000000000000000000000000000000000000000000000000000000815260040161188190612edf565b60405180910390fd5b818161189691906131ec565b600260008573ffffffffffffffffffffffffffffffffffffffff1673ffffffffffffffffffffffffffffffffffffffff1681526020019081526020016000208190555081600460008282546118eb91906131ec565b92505081905550600073ffffffffffffffffffffffffffffffffffffffff168373ffffffffffffffffffffffffffffffffffffffff167fddf252ad1be2c89b69c2b068fc378daa952ba7f163c4a11628f55a4df523b3ef8460405161195091906130df565b60405180910390a3505050565b611965610a5b565b156119a5576040517f08c379a000000000000000000000000000000000000000000000000000000000815260040161199c90612f5f565b60405180910390fd5b6001600760006101000a81548160ff0219169083151502179055507f62e78cea01bee320cd4e420270b5ea74000d11b0c9f74754ebdbfc544b05a2586119e961105f565b6040516119f69190612dec565b60405180910390a1565b6000611a0f8360000183611f1e565b60001c905092915050565b6000611a2882600001611fb8565b9050919050565b611a3882610813565b611a4981611a4461105f565b611c22565b611a538383611cbf565b505050565b611a628282610c0e565b611b3457600160008084815260200190815260200160002060000160008373ffffffffffffffffffffffffffffffffffffffff1673ffffffffffffffffffffffffffffffffffffffff16815260200190815260200160002060006101000a81548160ff021916908315150217905550611ad961105f565b73ffffffffffffffffffffffffffffffffffffffff168173ffffffffffffffffffffffffffffffffffffffff16837f2f8788117e7eff1d82e926ec794901d17c78024a50270940304540a733656f0d60405160405180910390a45b5050565b6000611b448383611fc9565b611b9d578260000182908060018154018082558091505060019003906000526020600020016000909190919091505582600001805490508360010160008481526020019081526020016000208190555060019050611ba2565b600090505b92915050565b60007f01ffc9a7000000000000000000000000000000000000000000000000000000007bffffffffffffffffffffffffffffffffffffffffffffffffffffffff1916827bffffffffffffffffffffffffffffffffffffffffffffffffffffffff1916149050919050565b611c1d838383610f88565b505050565b611c2c8282610c0e565b611cbb57611c518173ffffffffffffffffffffffffffffffffffffffff166014611fec565b611c5f8360001c6020611fec565b604051602001611c70929190612db2565b6040516020818303038152906040526040517f08c379a0000000000000000000000000000000000000000000000000000000008152600401611cb29190612e3d565b60405180910390fd5b5050565b611cc98282610c0e565b15611d9c57600080600084815260200190815260200160002060000160008373ffffffffffffffffffffffffffffffffffffffff1673ffffffffffffffffffffffffffffffffffffffff16815260200190815260200160002060006101000a81548160ff021916908315150217905550611d4161105f565b73ffffffffffffffffffffffffffffffffffffffff168173ffffffffffffffffffffffffffffffffffffffff16837ff6391f5c32d9c69d2a47ea670b442974b53935d1edc7fd64eb21e047a839171b60405160405180910390a45b5050565b60008083600101600084815260200190815260200160002054905060008114611f12576000600182611dd291906131ec565b9050600060018660000180549050611dea91906131ec565b90506000866000018281548110611e2a577f4e487b7100000000000000000000000000000000000000000000000000000000600052603260045260246000fd5b9060005260206000200154905080876000018481548110611e74577f4e487b7100000000000000000000000000000000000000000000000000000000600052603260045260246000fd5b9060005260206000200181905550838760010160008381526020019081526020016000208190555086600001805480611ed6577f4e487b7100000000000000000000000000000000000000000000000000000000600052603160045260246000fd5b60019003818190600052602060002001600090559055866001016000878152602001908152602001600020600090556001945050505050611f18565b60009150505b92915050565b600081836000018054905011611f69576040517f08c379a0000000000000000000000000000000000000000000000000000000008152600401611f6090612e5f565b60405180910390fd5b826000018281548110611fa5577f4e487b7100000000000000000000000000000000000000000000000000000000600052603260045260246000fd5b9060005260206000200154905092915050565b600081600001805490509050919050565b600080836001016000848152602001908152602001600020541415905092915050565b606060006002836002611fff9190613192565b612009919061313c565b67ffffffffffffffff811115612048577f4e487b7100000000000000000000000000000000000000000000000000000000600052604160045260246000fd5b6040519080825280601f01601f19166020018201604052801561207a5781602001600182028036833780820191505090505b5090507f3000000000000000000000000000000000000000000000000000000000000000816000815181106120d8577f4e487b7100000000000000000000000000000000000000000000000000000000600052603260045260246000fd5b60200101907effffffffffffffffffffffffffffffffffffffffffffffffffffffffffffff1916908160001a9053507f780000000000000000000000000000000000000000000000000000000000000081600181518110612162577f4e487b7100000000000000000000000000000000000000000000000000000000600052603260045260246000fd5b60200101907effffffffffffffffffffffffffffffffffffffffffffffffffffffffffffff1916908160001a905350600060018460026121a29190613192565b6121ac919061313c565b90505b6001811115612298577f3031323334353637383961626364656600000000000000000000000000000000600f861660108110612214577f4e487b7100000000000000000000000000000000000000000000000000000000600052603260045260246000fd5b1a60f81b828281518110612251577f4e487b7100000000000000000000000000000000000000000000000000000000600052603260045260246000fd5b60200101907effffffffffffffffffffffffffffffffffffffffffffffffffffffffffffff1916908160001a905350600485901c945080612291906132de565b90506121af565b50600084146122dc576040517f08c379a00000000000000000000000000000000000000000000000000000000081526004016122d390612e7f565b60405180910390fd5b8091505092915050565b6000813590506122f5816133a9565b92915050565b60008135905061230a816133c0565b92915050565b60008135905061231f816133d7565b92915050565b600081359050612334816133ee565b92915050565b60006020828403121561234c57600080fd5b600061235a848285016122e6565b91505092915050565b6000806040838503121561237657600080fd5b6000612384858286016122e6565b9250506020612395858286016122e6565b9150509250929050565b6000806000606084860312156123b457600080fd5b60006123c2868287016122e6565b93505060206123d3868287016122e6565b92505060406123e486828701612325565b9150509250925092565b6000806040838503121561240157600080fd5b600061240f858286016122e6565b925050602061242085828601612325565b9150509250929050565b60006020828403121561243c57600080fd5b600061244a848285016122fb565b91505092915050565b6000806040838503121561246657600080fd5b6000612474858286016122fb565b9250506020612485858286016122e6565b9150509250929050565b600080604083850312156124a257600080fd5b60006124b0858286016122fb565b92505060206124c185828601612325565b9150509250929050565b6000602082840312156124dd57600080fd5b60006124eb84828501612310565b91505092915050565b60006020828403121561250657600080fd5b600061251484828501612325565b91505092915050565b61252681613220565b82525050565b61253581613232565b82525050565b6125448161323e565b82525050565b600061255582613115565b61255f8185613120565b935061256f8185602086016132ab565b61257881613398565b840191505092915050565b600061258e82613115565b6125988185613131565b93506125a88185602086016132ab565b80840191505092915050565b60006125c1602283613120565b91507f456e756d657261626c655365743a20696e646578206f7574206f6620626f756e60008301527f64730000000000000000000000000000000000000000000000000000000000006020830152604082019050919050565b6000612627602083613120565b91507f537472696e67733a20686578206c656e67746820696e73756666696369656e746000830152602082019050919050565b6000612667602383613120565b91507f45524332303a207472616e7366657220746f20746865207a65726f206164647260008301527f65737300000000000000000000000000000000000000000000000000000000006020830152604082019050919050565b60006126cd601483613120565b91507f5061757361626c653a206e6f74207061757365640000000000000000000000006000830152602082019050919050565b600061270d602283613120565b91507f45524332303a206275726e20616d6f756e7420657863656564732062616c616e60008301527f63650000000000000000000000000000000000000000000000000000000000006020830152604082019050919050565b6000612773603983613120565b91507f45524332305072657365744d696e7465725061757365723a206d75737420686160008301527f76652070617573657220726f6c6520746f20756e7061757365000000000000006020830152604082019050919050565b60006127d9602283613120565b91507f45524332303a20617070726f766520746f20746865207a65726f20616464726560008301527f73730000000000000000000000000000000000000000000000000000000000006020830152604082019050919050565b600061283f602683613120565b91507f45524332303a207472616e7366657220616d6f756e742065786365656473206260008301527f616c616e636500000000000000000000000000000000000000000000000000006020830152604082019050919050565b60006128a5601083613120565b91507f5061757361626c653a20706175736564000000000000000000000000000000006000830152602082019050919050565b60006128e5602883613120565b91507f45524332303a207472616e7366657220616d6f756e742065786365656473206160008301527f6c6c6f77616e63650000000000000000000000000000000000000000000000006020830152604082019050919050565b600061294b603683613120565b91507f45524332305072657365744d696e7465725061757365723a206d75737420686160008301527f7665206d696e74657220726f6c6520746f206d696e74000000000000000000006020830152604082019050919050565b60006129b1602483613120565b91507f45524332303a206275726e20616d6f756e74206578636565647320616c6c6f7760008301527f616e6365000000000000000000000000000000000000000000000000000000006020830152604082019050919050565b6000612a17602183613120565b91507f45524332303a206275726e2066726f6d20746865207a65726f2061646472657360008301527f73000000000000000000000000000000000000000000000000000000000000006020830152604082019050919050565b6000612a7d602583613120565b91507f45524332303a207472616e736665722066726f6d20746865207a65726f20616460008301527f64726573730000000000000000000000000000000000000000000000000000006020830152604082019050919050565b6000612ae3602483613120565b91507f45524332303a20617070726f76652066726f6d20746865207a65726f2061646460008301527f72657373000000000000000000000000000000000000000000000000000000006020830152604082019050919050565b6000612b49603783613120565b91507f45524332305072657365744d696e7465725061757365723a206d75737420686160008301527f76652070617573657220726f6c6520746f2070617573650000000000000000006020830152604082019050919050565b6000612baf601783613131565b91507f416363657373436f6e74726f6c3a206163636f756e74200000000000000000006000830152601782019050919050565b6000612bef602583613120565b91507f45524332303a2064656372656173656420616c6c6f77616e63652062656c6f7760008301527f207a65726f0000000000000000000000000000000000000000000000000000006020830152604082019050919050565b6000612c55601183613131565b91507f206973206d697373696e6720726f6c65200000000000000000000000000000006000830152601182019050919050565b6000612c95602f83613120565b91507f416363657373436f6e74726f6c3a2063616e206f6e6c792072656e6f756e636560008301527f20726f6c657320666f722073656c6600000000000000000000000000000000006020830152604082019050919050565b6000612cfb601f83613120565b91507f45524332303a206d696e7420746f20746865207a65726f2061646472657373006000830152602082019050919050565b6000612d3b602a83613120565b91507f45524332305061757361626c653a20746f6b656e207472616e7366657220776860008301527f696c6520706175736564000000000000000000000000000000000000000000006020830152604082019050919050565b612d9d81613294565b82525050565b612dac8161329e565b82525050565b6000612dbd82612ba2565b9150612dc98285612583565b9150612dd482612c48565b9150612de08284612583565b91508190509392505050565b6000602082019050612e01600083018461251d565b92915050565b6000602082019050612e1c600083018461252c565b92915050565b6000602082019050612e37600083018461253b565b92915050565b60006020820190508181036000830152612e57818461254a565b905092915050565b60006020820190508181036000830152612e78816125b4565b9050919050565b60006020820190508181036000830152612e988161261a565b9050919050565b60006020820190508181036000830152612eb88161265a565b9050919050565b60006020820190508181036000830152612ed8816126c0565b9050919050565b60006020820190508181036000830152612ef881612700565b9050919050565b60006020820190508181036000830152612f1881612766565b9050919050565b60006020820190508181036000830152612f38816127cc565b9050919050565b60006020820190508181036000830152612f5881612832565b9050919050565b60006020820190508181036000830152612f7881612898565b9050919050565b60006020820190508181036000830152612f98816128d8565b9050919050565b60006020820190508181036000830152612fb88161293e565b9050919050565b60006020820190508181036000830152612fd8816129a4565b9050919050565b60006020820190508181036000830152612ff881612a0a565b9050919050565b6000602082019050818103600083015261301881612a70565b9050919050565b6000602082019050818103600083015261303881612ad6565b9050919050565b6000602082019050818103600083015261305881612b3c565b9050919050565b6000602082019050818103600083015261307881612be2565b9050919050565b6000602082019050818103600083015261309881612c88565b9050919050565b600060208201905081810360008301526130b881612cee565b9050919050565b600060208201905081810360008301526130d881612d2e565b9050919050565b60006020820190506130f46000830184612d94565b92915050565b600060208201905061310f6000830184612da3565b92915050565b600081519050919050565b600082825260208201905092915050565b600081905092915050565b600061314782613294565b915061315283613294565b9250827fffffffffffffffffffffffffffffffffffffffffffffffffffffffffffffffff038211156131875761318661333a565b5b828201905092915050565b600061319d82613294565b91506131a883613294565b9250817fffffffffffffffffffffffffffffffffffffffffffffffffffffffffffffffff04831182151516156131e1576131e061333a565b5b828202905092915050565b60006131f782613294565b915061320283613294565b9250828210156132155761321461333a565b5b828203905092915050565b600061322b82613274565b9050919050565b60008115159050919050565b6000819050919050565b60007fffffffff0000000000000000000000000000000000000000000000000000000082169050919050565b600073ffffffffffffffffffffffffffffffffffffffff82169050919050565b6000819050919050565b600060ff82169050919050565b60005b838110156132c95780820151818401526020810190506132ae565b838111156132d8576000848401525b50505050565b60006132e982613294565b915060008214156132fd576132fc61333a565b5b600182039050919050565b6000600282049050600182168061332057607f821691505b6020821081141561333457613333613369565b5b50919050565b7f4e487b7100000000000000000000000000000000000000000000000000000000600052601160045260246000fd5b7f4e487b7100000000000000000000000000000000000000000000000000000000600052602260045260246000fd5b6000601f19601f8301169050919050565b6133b281613220565b81146133bd57600080fd5b50565b6133c98161323e565b81146133d457600080fd5b50565b6133e081613248565b81146133eb57600080fd5b50565b6133f781613294565b811461340257600080fd5b5056fea26469706673582212206164176c75b10944626c5fb1dfc8e457caf1bad4eec0d7ed94c436e32f93a34164736f6c63430008000033",
  "linkReferences": {},
  "deployedLinkReferences": {}
}