{
  "_format": "hh-sol-artifact-1",
  "contractName": "Pass",
  "sourceName": "contracts/nft2.sol",
  "abi": [
    {
      "inputs": [],
      "stateMutability": "nonpayable",
      "type": "constructor"
    },
    {
      "anonymous": false,
      "inputs": [
        {
          "indexed": true,
          "internalType": "address",
          "name": "owner",
          "type": "address"
        },
        {
          "indexed": true,
          "internalType": "address",
          "name": "approved",
          "type": "address"
        },
        {
          "indexed": true,
          "internalType": "uint256",
          "name": "tokenId",
          "type": "uint256"
        }
      ],
      "name": "Approval",
      "type": "event"
    },
    {
      "anonymous": false,
      "inputs": [
        {
          "indexed": true,
          "internalType": "address",
          "name": "owner",
          "type": "address"
        },
        {
          "indexed": true,
          "internalType": "address",
          "name": "operator",
          "type": "address"
        },
        {
          "indexed": false,
          "internalType": "bool",
          "name": "approved",
          "type": "bool"
        }
      ],
      "name": "ApprovalForAll",
      "type": "event"
    },
    {
      "anonymous": false,
      "inputs": [
        {
          "indexed": true,
          "internalType": "address",
          "name": "previousOwner",
          "type": "address"
        },
        {
          "indexed": true,
          "internalType": "address",
          "name": "newOwner",
          "type": "address"
        }
      ],
      "name": "OwnershipTransferred",
      "type": "event"
    },
    {
      "anonymous": false,
      "inputs": [
        {
          "indexed": false,
          "internalType": "address",
          "name": "account",
          "type": "address"
        }
      ],
      "name": "Paused",
      "type": "event"
    },
    {
      "anonymous": false,
      "inputs": [
        {
          "indexed": true,
          "internalType": "address",
          "name": "from",
          "type": "address"
        },
        {
          "indexed": true,
          "internalType": "address",
          "name": "to",
          "type": "address"
        },
        {
          "indexed": true,
          "internalType": "uint256",
          "name": "tokenId",
          "type": "uint256"
        }
      ],
      "name": "Transfer",
      "type": "event"
    },
    {
      "anonymous": false,
      "inputs": [
        {
          "indexed": false,
          "internalType": "address",
          "name": "account",
          "type": "address"
        }
      ],
      "name": "Unpaused",
      "type": "event"
    },
    {
      "inputs": [
        {
          "internalType": "address",
          "name": "",
          "type": "address"
        },
        {
          "internalType": "uint256",
          "name": "",
          "type": "uint256"
        }
      ],
      "name": "approve",
      "outputs": [],
      "stateMutability": "nonpayable",
      "type": "function"
    },
    {
      "inputs": [
        {
          "internalType": "address",
          "name": "owner",
          "type": "address"
        }
      ],
      "name": "balanceOf",
      "outputs": [
        {
          "internalType": "uint256",
          "name": "",
          "type": "uint256"
        }
      ],
      "stateMutability": "view",
      "type": "function"
    },
    {
      "inputs": [
        {
          "internalType": "uint256",
          "name": "",
          "type": "uint256"
        }
      ],
      "name": "getApproved",
      "outputs": [
        {
          "internalType": "address",
          "name": "",
          "type": "address"
        }
      ],
      "stateMutability": "pure",
      "type": "function"
    },
    {
      "inputs": [
        {
          "internalType": "address",
          "name": "",
          "type": "address"
        },
        {
          "internalType": "address",
          "name": "",
          "type": "address"
        }
      ],
      "name": "isApprovedForAll",
      "outputs": [
        {
          "internalType": "bool",
          "name": "",
          "type": "bool"
        }
      ],
      "stateMutability": "pure",
      "type": "function"
    },
    {
      "inputs": [],
      "name": "name",
      "outputs": [
        {
          "internalType": "string",
          "name": "",
          "type": "string"
        }
      ],
      "stateMutability": "view",
      "type": "function"
    },
    {
      "inputs": [],
      "name": "owner",
      "outputs": [
        {
          "internalType": "address",
          "name": "",
          "type": "address"
        }
      ],
      "stateMutability": "view",
      "type": "function"
    },
    {
      "inputs": [
        {
          "internalType": "uint256",
          "name": "tokenId",
          "type": "uint256"
        }
      ],
      "name": "ownerOf",
      "outputs": [
        {
          "internalType": "address",
          "name": "",
          "type": "address"
        }
      ],
      "stateMutability": "view",
      "type": "function"
    },
    {
      "inputs": [],
      "name": "pause",
      "outputs": [],
      "stateMutability": "nonpayable",
      "type": "function"
    },
    {
      "inputs": [],
      "name": "paused",
      "outputs": [
        {
          "internalType": "bool",
          "name": "",
          "type": "bool"
        }
      ],
      "stateMutability": "view",
      "type": "function"
    },
    {
      "inputs": [],
      "name": "renounceOwnership",
      "outputs": [],
      "stateMutability": "nonpayable",
      "type": "function"
    },
    {
      "inputs": [],
      "name": "safeMint",
      "outputs": [],
      "stateMutability": "nonpayable",
      "type": "function"
    },
    {
      "inputs": [
        {
          "internalType": "address",
          "name": "",
          "type": "address"
        },
        {
          "internalType": "address",
          "name": "",
          "type": "address"
        },
        {
          "internalType": "uint256",
          "name": "",
          "type": "uint256"
        }
      ],
      "name": "safeTransferFrom",
      "outputs": [],
      "stateMutability": "nonpayable",
      "type": "function"
    },
    {
      "inputs": [
        {
          "internalType": "address",
          "name": "",
          "type": "address"
        },
        {
          "internalType": "address",
          "name": "",
          "type": "address"
        },
        {
          "internalType": "uint256",
          "name": "",
          "type": "uint256"
        },
        {
          "internalType": "bytes",
          "name": "",
          "type": "bytes"
        }
      ],
      "name": "safeTransferFrom",
      "outputs": [],
      "stateMutability": "nonpayable",
      "type": "function"
    },
    {
      "inputs": [
        {
          "internalType": "address",
          "name": "",
          "type": "address"
        },
        {
          "internalType": "bool",
          "name": "",
          "type": "bool"
        }
      ],
      "name": "setApprovalForAll",
      "outputs": [],
      "stateMutability": "nonpayable",
      "type": "function"
    },
    {
      "inputs": [
        {
          "internalType": "string",
          "name": "baseURI_",
          "type": "string"
        }
      ],
      "name": "setBaseURI",
      "outputs": [],
      "stateMutability": "nonpayable",
      "type": "function"
    },
    {
      "inputs": [
        {
          "internalType": "bytes4",
          "name": "interfaceId",
          "type": "bytes4"
        }
      ],
      "name": "supportsInterface",
      "outputs": [
        {
          "internalType": "bool",
          "name": "",
          "type": "bool"
        }
      ],
      "stateMutability": "view",
      "type": "function"
    },
    {
      "inputs": [],
      "name": "symbol",
      "outputs": [
        {
          "internalType": "string",
          "name": "",
          "type": "string"
        }
      ],
      "stateMutability": "view",
      "type": "function"
    },
    {
      "inputs": [
        {
          "internalType": "uint256",
          "name": "tokenId",
          "type": "uint256"
        }
      ],
      "name": "tokenURI",
      "outputs": [
        {
          "internalType": "string",
          "name": "",
          "type": "string"
        }
      ],
      "stateMutability": "view",
      "type": "function"
    },
    {
      "inputs": [
        {
          "internalType": "address",
          "name": "",
          "type": "address"
        },
        {
          "internalType": "address",
          "name": "",
          "type": "address"
        },
        {
          "internalType": "uint256",
          "name": "",
          "type": "uint256"
        }
      ],
      "name": "transferFrom",
      "outputs": [],
      "stateMutability": "nonpayable",
      "type": "function"
    },
    {
      "inputs": [
        {
          "internalType": "address",
          "name": "newOwner",
          "type": "address"
        }
      ],
      "name": "transferOwnership",
      "outputs": [],
      "stateMutability": "nonpayable",
      "type": "function"
    },
    {
      "inputs": [],
      "name": "unpause",
      "outputs": [],
      "stateMutability": "nonpayable",
      "type": "function"
    }
  ],
  "bytecode": "0x60806040523480156200001157600080fd5b506040518060400160405280600c81526020017f44414f42617365205061737300000000000000000000000000000000000000008152506040518060400160405280600381526020017f444250000000000000000000000000000000000000000000000000000000000081525081600090816200008f91906200042d565b508060019081620000a191906200042d565b505050620000c4620000b8620000e560201b60201c565b620000ed60201b60201c565b6000600660146101000a81548160ff02191690831515021790555062000514565b600033905090565b6000600660009054906101000a900473ffffffffffffffffffffffffffffffffffffffff16905081600660006101000a81548173ffffffffffffffffffffffffffffffffffffffff021916908373ffffffffffffffffffffffffffffffffffffffff1602179055508173ffffffffffffffffffffffffffffffffffffffff168173ffffffffffffffffffffffffffffffffffffffff167f8be0079c531659141344cd1fd0a4f28419497f9722a3daafe3b4186f6b6457e060405160405180910390a35050565b600081519050919050565b7f4e487b7100000000000000000000000000000000000000000000000000000000600052604160045260246000fd5b7f4e487b7100000000000000000000000000000000000000000000000000000000600052602260045260246000fd5b600060028204905060018216806200023557607f821691505b6020821081036200024b576200024a620001ed565b5b50919050565b60008190508160005260206000209050919050565b60006020601f8301049050919050565b600082821b905092915050565b600060088302620002b57fffffffffffffffffffffffffffffffffffffffffffffffffffffffffffffffff8262000276565b620002c1868362000276565b95508019841693508086168417925050509392505050565b6000819050919050565b6000819050919050565b60006200030e620003086200030284620002d9565b620002e3565b620002d9565b9050919050565b6000819050919050565b6200032a83620002ed565b62000342620003398262000315565b84845462000283565b825550505050565b600090565b620003596200034a565b620003668184846200031f565b505050565b5b818110156200038e57620003826000826200034f565b6001810190506200036c565b5050565b601f821115620003dd57620003a78162000251565b620003b28462000266565b81016020851015620003c2578190505b620003da620003d18562000266565b8301826200036b565b50505b505050565b600082821c905092915050565b60006200040260001984600802620003e2565b1980831691505092915050565b60006200041d8383620003ef565b9150826002028217905092915050565b6200043882620001b3565b67ffffffffffffffff811115620004545762000453620001be565b5b6200046082546200021c565b6200046d82828562000392565b600060209050601f831160018114620004a5576000841562000490578287015190505b6200049c85826200040f565b8655506200050c565b601f198416620004b58662000251565b60005b82811015620004df57848901518255600182019150602085019450602081019050620004b8565b86831015620004ff5784890151620004fb601f891682620003ef565b8355505b6001600288020188555050505b505050505050565b61267180620005246000396000f3fe608060405234801561001057600080fd5b50600436106101375760003560e01c80636871ee40116100b857806395d89b411161007c57806395d89b41146102ee578063a22cb4651461030c578063b88d4fde14610328578063c87b56dd14610344578063e985e9c514610374578063f2fde38b146103a457610137565b80636871ee401461028257806370a082311461028c578063715018a6146102bc5780638456cb59146102c65780638da5cb5b146102d057610137565b80633f4ba83a116100ff5780633f4ba83a146101f257806342842e0e146101fc57806355f804b3146102185780635c975abb146102345780636352211e1461025257610137565b806301ffc9a71461013c57806306fdde031461016c578063081812fc1461018a578063095ea7b3146101ba57806323b872dd146101d6575b600080fd5b61015660048036038101906101519190611631565b6103c0565b6040516101639190611679565b60405180910390f35b6101746104a2565b6040516101819190611724565b60405180910390f35b6101a4600480360381019061019f919061177c565b610534565b6040516101b191906117ea565b60405180910390f35b6101d460048036038101906101cf9190611831565b61053b565b005b6101f060048036038101906101eb9190611871565b610576565b005b6101fa6105b1565b005b61021660048036038101906102119190611871565b6105c3565b005b610232600480360381019061022d91906119f9565b6105fe565b005b61023c610619565b6040516102499190611679565b60405180910390f35b61026c6004803603810190610267919061177c565b610630565b60405161027991906117ea565b60405180910390f35b61028a6106b6565b005b6102a660048036038101906102a19190611a42565b6107c8565b6040516102b39190611a7e565b60405180910390f35b6102c461087f565b005b6102ce610893565b005b6102d86108a5565b6040516102e591906117ea565b60405180910390f35b6102f66108cf565b6040516103039190611724565b60405180910390f35b61032660048036038101906103219190611ac5565b610961565b005b610342600480360381019061033d9190611ba6565b61099c565b005b61035e6004803603810190610359919061177c565b6109d7565b60405161036b9190611724565b60405180910390f35b61038e60048036038101906103899190611c29565b610a3f565b60405161039b9190611679565b60405180910390f35b6103be60048036038101906103b99190611a42565b610a47565b005b60007f80ac58cd000000000000000000000000000000000000000000000000000000007bffffffffffffffffffffffffffffffffffffffffffffffffffffffff1916827bffffffffffffffffffffffffffffffffffffffffffffffffffffffff1916148061048b57507f5b5e139f000000000000000000000000000000000000000000000000000000007bffffffffffffffffffffffffffffffffffffffffffffffffffffffff1916827bffffffffffffffffffffffffffffffffffffffffffffffffffffffff1916145b8061049b575061049a82610aca565b5b9050919050565b6060600080546104b190611c98565b80601f01602080910402602001604051908101604052809291908181526020018280546104dd90611c98565b801561052a5780601f106104ff5761010080835404028352916020019161052a565b820191906000526020600020905b81548152906001019060200180831161050d57829003601f168201915b5050505050905090565b6000919050565b6040517f08c379a000000000000000000000000000000000000000000000000000000000815260040161056d90611d15565b60405180910390fd5b6040517f08c379a00000000000000000000000000000000000000000000000000000000081526004016105a890611d81565b60405180910390fd5b6105b9610b34565b6105c1610bb2565b565b6040517f08c379a00000000000000000000000000000000000000000000000000000000081526004016105f590611d81565b60405180910390fd5b610606610b34565b80600990816106159190611f4d565b5050565b6000600660149054906101000a900460ff16905090565b60008061063c83610c15565b9050600073ffffffffffffffffffffffffffffffffffffffff168173ffffffffffffffffffffffffffffffffffffffff16036106ad576040517f08c379a00000000000000000000000000000000000000000000000000000000081526004016106a49061206b565b60405180910390fd5b80915050919050565b6106be610c52565b600860003373ffffffffffffffffffffffffffffffffffffffff1673ffffffffffffffffffffffffffffffffffffffff16815260200190815260200160002060009054906101000a900460ff161561074b576040517f08c379a0000000000000000000000000000000000000000000000000000000008152600401610742906120d7565b60405180910390fd5b60006107576007610c9c565b90506107636007610caa565b61076d3382610cc0565b6001600860003373ffffffffffffffffffffffffffffffffffffffff1673ffffffffffffffffffffffffffffffffffffffff16815260200190815260200160002060006101000a81548160ff02191690831515021790555050565b60008073ffffffffffffffffffffffffffffffffffffffff168273ffffffffffffffffffffffffffffffffffffffff1603610838576040517f08c379a000000000000000000000000000000000000000000000000000000000815260040161082f90612169565b60405180910390fd5b600360008373ffffffffffffffffffffffffffffffffffffffff1673ffffffffffffffffffffffffffffffffffffffff168152602001908152602001600020549050919050565b610887610b34565b6108916000610cde565b565b61089b610b34565b6108a3610da4565b565b6000600660009054906101000a900473ffffffffffffffffffffffffffffffffffffffff16905090565b6060600180546108de90611c98565b80601f016020809104026020016040519081016040528092919081815260200182805461090a90611c98565b80156109575780601f1061092c57610100808354040283529160200191610957565b820191906000526020600020905b81548152906001019060200180831161093a57829003601f168201915b5050505050905090565b6040517f08c379a000000000000000000000000000000000000000000000000000000000815260040161099390611d15565b60405180910390fd5b6040517f08c379a00000000000000000000000000000000000000000000000000000000081526004016109ce90611d81565b60405180910390fd5b60606109e282610e07565b60006109ec610e52565b90506000815111610a0c5760405180602001604052806000815250610a37565b80610a1684610ee4565b604051602001610a279291906121c5565b6040516020818303038152906040525b915050919050565b600092915050565b610a4f610b34565b600073ffffffffffffffffffffffffffffffffffffffff168173ffffffffffffffffffffffffffffffffffffffff1603610abe576040517f08c379a0000000000000000000000000000000000000000000000000000000008152600401610ab59061225b565b60405180910390fd5b610ac781610cde565b50565b60007f01ffc9a7000000000000000000000000000000000000000000000000000000007bffffffffffffffffffffffffffffffffffffffffffffffffffffffff1916827bffffffffffffffffffffffffffffffffffffffffffffffffffffffff1916149050919050565b610b3c610fb2565b73ffffffffffffffffffffffffffffffffffffffff16610b5a6108a5565b73ffffffffffffffffffffffffffffffffffffffff1614610bb0576040517f08c379a0000000000000000000000000000000000000000000000000000000008152600401610ba7906122c7565b60405180910390fd5b565b610bba610fba565b6000600660146101000a81548160ff0219169083151502179055507f5db9ee0a495bf2e6ff9c91a7834c1ba4fdd244a5e8aa4e537bd38aeae4b073aa610bfe610fb2565b604051610c0b91906117ea565b60405180910390a1565b60006002600083815260200190815260200160002060009054906101000a900473ffffffffffffffffffffffffffffffffffffffff169050919050565b610c5a610619565b15610c9a576040517f08c379a0000000000000000000000000000000000000000000000000000000008152600401610c9190612333565b60405180910390fd5b565b600081600001549050919050565b6001816000016000828254019250508190555050565b610cda828260405180602001604052806000815250611003565b5050565b6000600660009054906101000a900473ffffffffffffffffffffffffffffffffffffffff16905081600660006101000a81548173ffffffffffffffffffffffffffffffffffffffff021916908373ffffffffffffffffffffffffffffffffffffffff1602179055508173ffffffffffffffffffffffffffffffffffffffff168173ffffffffffffffffffffffffffffffffffffffff167f8be0079c531659141344cd1fd0a4f28419497f9722a3daafe3b4186f6b6457e060405160405180910390a35050565b610dac610c52565b6001600660146101000a81548160ff0219169083151502179055507f62e78cea01bee320cd4e420270b5ea74000d11b0c9f74754ebdbfc544b05a258610df0610fb2565b604051610dfd91906117ea565b60405180910390a1565b610e108161105e565b610e4f576040517f08c379a0000000000000000000000000000000000000000000000000000000008152600401610e469061206b565b60405180910390fd5b50565b606060098054610e6190611c98565b80601f0160208091040260200160405190810160405280929190818152602001828054610e8d90611c98565b8015610eda5780601f10610eaf57610100808354040283529160200191610eda565b820191906000526020600020905b815481529060010190602001808311610ebd57829003601f168201915b5050505050905090565b606060006001610ef38461109f565b01905060008167ffffffffffffffff811115610f1257610f116118ce565b5b6040519080825280601f01601f191660200182016040528015610f445781602001600182028036833780820191505090505b509050600082602001820190505b600115610fa7578080600190039150507f3031323334353637383961626364656600000000000000000000000000000000600a86061a8153600a8581610f9b57610f9a612353565b5b04945060008503610f52575b819350505050919050565b600033905090565b610fc2610619565b611001576040517f08c379a0000000000000000000000000000000000000000000000000000000008152600401610ff8906123ce565b60405180910390fd5b565b61100d83836111f2565b61101a600084848461140f565b611059576040517f08c379a000000000000000000000000000000000000000000000000000000000815260040161105090612460565b60405180910390fd5b505050565b60008073ffffffffffffffffffffffffffffffffffffffff1661108083610c15565b73ffffffffffffffffffffffffffffffffffffffff1614159050919050565b600080600090507a184f03e93ff9f4daa797ed6e38ed64bf6a1f01000000000000000083106110fd577a184f03e93ff9f4daa797ed6e38ed64bf6a1f01000000000000000083816110f3576110f2612353565b5b0492506040810190505b6d04ee2d6d415b85acef8100000000831061113a576d04ee2d6d415b85acef810000000083816111305761112f612353565b5b0492506020810190505b662386f26fc10000831061116957662386f26fc10000838161115f5761115e612353565b5b0492506010810190505b6305f5e1008310611192576305f5e100838161118857611187612353565b5b0492506008810190505b61271083106111b75761271083816111ad576111ac612353565b5b0492506004810190505b606483106111da57606483816111d0576111cf612353565b5b0492506002810190505b600a83106111e9576001810190505b80915050919050565b600073ffffffffffffffffffffffffffffffffffffffff168273ffffffffffffffffffffffffffffffffffffffff1603611261576040517f08c379a0000000000000000000000000000000000000000000000000000000008152600401611258906124cc565b60405180910390fd5b61126a8161105e565b156112aa576040517f08c379a00000000000000000000000000000000000000000000000000000000081526004016112a190612538565b60405180910390fd5b6112b8600083836001611596565b6112c18161105e565b15611301576040517f08c379a00000000000000000000000000000000000000000000000000000000081526004016112f890612538565b60405180910390fd5b6001600360008473ffffffffffffffffffffffffffffffffffffffff1673ffffffffffffffffffffffffffffffffffffffff16815260200190815260200160002060008282540192505081905550816002600083815260200190815260200160002060006101000a81548173ffffffffffffffffffffffffffffffffffffffff021916908373ffffffffffffffffffffffffffffffffffffffff160217905550808273ffffffffffffffffffffffffffffffffffffffff16600073ffffffffffffffffffffffffffffffffffffffff167fddf252ad1be2c89b69c2b068fc378daa952ba7f163c4a11628f55a4df523b3ef60405160405180910390a461140b60008383600161159c565b5050565b60006114308473ffffffffffffffffffffffffffffffffffffffff166115a2565b15611589578373ffffffffffffffffffffffffffffffffffffffff1663150b7a02611459610fb2565b8786866040518563ffffffff1660e01b815260040161147b94939291906125ad565b6020604051808303816000875af19250505080156114b757506040513d601f19601f820116820180604052508101906114b4919061260e565b60015b611539573d80600081146114e7576040519150601f19603f3d011682016040523d82523d6000602084013e6114ec565b606091505b506000815103611531576040517f08c379a000000000000000000000000000000000000000000000000000000000815260040161152890612460565b60405180910390fd5b805181602001fd5b63150b7a0260e01b7bffffffffffffffffffffffffffffffffffffffffffffffffffffffff1916817bffffffffffffffffffffffffffffffffffffffffffffffffffffffff19161491505061158e565b600190505b949350505050565b50505050565b50505050565b6000808273ffffffffffffffffffffffffffffffffffffffff163b119050919050565b6000604051905090565b600080fd5b600080fd5b60007fffffffff0000000000000000000000000000000000000000000000000000000082169050919050565b61160e816115d9565b811461161957600080fd5b50565b60008135905061162b81611605565b92915050565b600060208284031215611647576116466115cf565b5b60006116558482850161161c565b91505092915050565b60008115159050919050565b6116738161165e565b82525050565b600060208201905061168e600083018461166a565b92915050565b600081519050919050565b600082825260208201905092915050565b60005b838110156116ce5780820151818401526020810190506116b3565b60008484015250505050565b6000601f19601f8301169050919050565b60006116f682611694565b611700818561169f565b93506117108185602086016116b0565b611719816116da565b840191505092915050565b6000602082019050818103600083015261173e81846116eb565b905092915050565b6000819050919050565b61175981611746565b811461176457600080fd5b50565b60008135905061177681611750565b92915050565b600060208284031215611792576117916115cf565b5b60006117a084828501611767565b91505092915050565b600073ffffffffffffffffffffffffffffffffffffffff82169050919050565b60006117d4826117a9565b9050919050565b6117e4816117c9565b82525050565b60006020820190506117ff60008301846117db565b92915050565b61180e816117c9565b811461181957600080fd5b50565b60008135905061182b81611805565b92915050565b60008060408385031215611848576118476115cf565b5b60006118568582860161181c565b925050602061186785828601611767565b9150509250929050565b60008060006060848603121561188a576118896115cf565b5b60006118988682870161181c565b93505060206118a98682870161181c565b92505060406118ba86828701611767565b9150509250925092565b600080fd5b600080fd5b7f4e487b7100000000000000000000000000000000000000000000000000000000600052604160045260246000fd5b611906826116da565b810181811067ffffffffffffffff82111715611925576119246118ce565b5b80604052505050565b60006119386115c5565b905061194482826118fd565b919050565b600067ffffffffffffffff821115611964576119636118ce565b5b61196d826116da565b9050602081019050919050565b82818337600083830152505050565b600061199c61199784611949565b61192e565b9050828152602081018484840111156119b8576119b76118c9565b5b6119c384828561197a565b509392505050565b600082601f8301126119e0576119df6118c4565b5b81356119f0848260208601611989565b91505092915050565b600060208284031215611a0f57611a0e6115cf565b5b600082013567ffffffffffffffff811115611a2d57611a2c6115d4565b5b611a39848285016119cb565b91505092915050565b600060208284031215611a5857611a576115cf565b5b6000611a668482850161181c565b91505092915050565b611a7881611746565b82525050565b6000602082019050611a936000830184611a6f565b92915050565b611aa28161165e565b8114611aad57600080fd5b50565b600081359050611abf81611a99565b92915050565b60008060408385031215611adc57611adb6115cf565b5b6000611aea8582860161181c565b9250506020611afb85828601611ab0565b9150509250929050565b600067ffffffffffffffff821115611b2057611b1f6118ce565b5b611b29826116da565b9050602081019050919050565b6000611b49611b4484611b05565b61192e565b905082815260208101848484011115611b6557611b646118c9565b5b611b7084828561197a565b509392505050565b600082601f830112611b8d57611b8c6118c4565b5b8135611b9d848260208601611b36565b91505092915050565b60008060008060808587031215611bc057611bbf6115cf565b5b6000611bce8782880161181c565b9450506020611bdf8782880161181c565b9350506040611bf087828801611767565b925050606085013567ffffffffffffffff811115611c1157611c106115d4565b5b611c1d87828801611b78565b91505092959194509250565b60008060408385031215611c4057611c3f6115cf565b5b6000611c4e8582860161181c565b9250506020611c5f8582860161181c565b9150509250929050565b7f4e487b7100000000000000000000000000000000000000000000000000000000600052602260045260246000fd5b60006002820490506001821680611cb057607f821691505b602082108103611cc357611cc2611c69565b5b50919050565b7f52656e6f756e3a20417070726f76616c206e6f7420737570706f727465642e00600082015250565b6000611cff601f8361169f565b9150611d0a82611cc9565b602082019050919050565b60006020820190508181036000830152611d2e81611cf2565b9050919050565b7f52656e6f756e3a205472616e73666572206e6f7420737570706f727465642e00600082015250565b6000611d6b601f8361169f565b9150611d7682611d35565b602082019050919050565b60006020820190508181036000830152611d9a81611d5e565b9050919050565b60008190508160005260206000209050919050565b60006020601f8301049050919050565b600082821b905092915050565b600060088302611e037fffffffffffffffffffffffffffffffffffffffffffffffffffffffffffffffff82611dc6565b611e0d8683611dc6565b95508019841693508086168417925050509392505050565b6000819050919050565b6000611e4a611e45611e4084611746565b611e25565b611746565b9050919050565b6000819050919050565b611e6483611e2f565b611e78611e7082611e51565b848454611dd3565b825550505050565b600090565b611e8d611e80565b611e98818484611e5b565b505050565b5b81811015611ebc57611eb1600082611e85565b600181019050611e9e565b5050565b601f821115611f0157611ed281611da1565b611edb84611db6565b81016020851015611eea578190505b611efe611ef685611db6565b830182611e9d565b50505b505050565b600082821c905092915050565b6000611f2460001984600802611f06565b1980831691505092915050565b6000611f3d8383611f13565b9150826002028217905092915050565b611f5682611694565b67ffffffffffffffff811115611f6f57611f6e6118ce565b5b611f798254611c98565b611f84828285611ec0565b600060209050601f831160018114611fb75760008415611fa5578287015190505b611faf8582611f31565b865550612017565b601f198416611fc586611da1565b60005b82811015611fed57848901518255600182019150602085019450602081019050611fc8565b8683101561200a5784890151612006601f891682611f13565b8355505b6001600288020188555050505b505050505050565b7f4552433732313a20696e76616c696420746f6b656e2049440000000000000000600082015250565b600061205560188361169f565b91506120608261201f565b602082019050919050565b6000602082019050818103600083015261208481612048565b9050919050565b7f416c7265616479206d696e746564206120746f6b656e00000000000000000000600082015250565b60006120c160168361169f565b91506120cc8261208b565b602082019050919050565b600060208201905081810360008301526120f0816120b4565b9050919050565b7f4552433732313a2061646472657373207a65726f206973206e6f74206120766160008201527f6c6964206f776e65720000000000000000000000000000000000000000000000602082015250565b600061215360298361169f565b915061215e826120f7565b604082019050919050565b6000602082019050818103600083015261218281612146565b9050919050565b600081905092915050565b600061219f82611694565b6121a98185612189565b93506121b98185602086016116b0565b80840191505092915050565b60006121d18285612194565b91506121dd8284612194565b91508190509392505050565b7f4f776e61626c653a206e6577206f776e657220697320746865207a65726f206160008201527f6464726573730000000000000000000000000000000000000000000000000000602082015250565b600061224560268361169f565b9150612250826121e9565b604082019050919050565b6000602082019050818103600083015261227481612238565b9050919050565b7f4f776e61626c653a2063616c6c6572206973206e6f7420746865206f776e6572600082015250565b60006122b160208361169f565b91506122bc8261227b565b602082019050919050565b600060208201905081810360008301526122e0816122a4565b9050919050565b7f5061757361626c653a2070617573656400000000000000000000000000000000600082015250565b600061231d60108361169f565b9150612328826122e7565b602082019050919050565b6000602082019050818103600083015261234c81612310565b9050919050565b7f4e487b7100000000000000000000000000000000000000000000000000000000600052601260045260246000fd5b7f5061757361626c653a206e6f7420706175736564000000000000000000000000600082015250565b60006123b860148361169f565b91506123c382612382565b602082019050919050565b600060208201905081810360008301526123e7816123ab565b9050919050565b7f4552433732313a207472616e7366657220746f206e6f6e20455243373231526560008201527f63656976657220696d706c656d656e7465720000000000000000000000000000602082015250565b600061244a60328361169f565b9150612455826123ee565b604082019050919050565b600060208201905081810360008301526124798161243d565b9050919050565b7f4552433732313a206d696e7420746f20746865207a65726f2061646472657373600082015250565b60006124b660208361169f565b91506124c182612480565b602082019050919050565b600060208201905081810360008301526124e5816124a9565b9050919050565b7f4552433732313a20746f6b656e20616c7265616479206d696e74656400000000600082015250565b6000612522601c8361169f565b915061252d826124ec565b602082019050919050565b6000602082019050818103600083015261255181612515565b9050919050565b600081519050919050565b600082825260208201905092915050565b600061257f82612558565b6125898185612563565b93506125998185602086016116b0565b6125a2816116da565b840191505092915050565b60006080820190506125c260008301876117db565b6125cf60208301866117db565b6125dc6040830185611a6f565b81810360608301526125ee8184612574565b905095945050505050565b60008151905061260881611605565b92915050565b600060208284031215612624576126236115cf565b5b6000612632848285016125f9565b9150509291505056fea2646970667358221220593436834bdf26a17cd1b183c43d0a2d3ad52f969c945dadf2da07d8f12169d564736f6c63430008180033",
  "linkReferences": {},
  "deployedLinkReferences": {}
}