{
  "_format": "hh-sol-artifact-1",
  "contractName": "Airdrop",
  "sourceName": "contracts/beeper/Airdrop.sol",
  "abi": [
    {
      "inputs": [
        {
          "internalType": "address",
          "name": "_erc20",
          "type": "address"
        },
        {
          "internalType": "address",
          "name": "_authorizer",
          "type": "address"
        },
        {
          "internalType": "address",
          "name": "_sponsor",
          "type": "address"
        }
      ],
      "stateMutability": "nonpayable",
      "type": "constructor"
    },
    {
      "anonymous": false,
      "inputs": [
        {
          "indexed": false,
          "internalType": "address",
          "name": "_recipient",
          "type": "address"
        },
        {
          "indexed": false,
          "internalType": "uint256",
          "name": "_amount",
          "type": "uint256"
        }
      ],
      "name": "Redeem",
      "type": "event"
    },
    {
      "anonymous": false,
      "inputs": [
        {
          "indexed": true,
          "internalType": "bytes32",
          "name": "role",
          "type": "bytes32"
        },
        {
          "indexed": true,
          "internalType": "bytes32",
          "name": "previousAdminRole",
          "type": "bytes32"
        },
        {
          "indexed": true,
          "internalType": "bytes32",
          "name": "newAdminRole",
          "type": "bytes32"
        }
      ],
      "name": "RoleAdminChanged",
      "type": "event"
    },
    {
      "anonymous": false,
      "inputs": [
        {
          "indexed": true,
          "internalType": "bytes32",
          "name": "role",
          "type": "bytes32"
        },
        {
          "indexed": true,
          "internalType": "address",
          "name": "account",
          "type": "address"
        },
        {
          "indexed": true,
          "internalType": "address",
          "name": "sender",
          "type": "address"
        }
      ],
      "name": "RoleGranted",
      "type": "event"
    },
    {
      "anonymous": false,
      "inputs": [
        {
          "indexed": true,
          "internalType": "bytes32",
          "name": "role",
          "type": "bytes32"
        },
        {
          "indexed": true,
          "internalType": "address",
          "name": "account",
          "type": "address"
        },
        {
          "indexed": true,
          "internalType": "address",
          "name": "sender",
          "type": "address"
        }
      ],
      "name": "RoleRevoked",
      "type": "event"
    },
    {
      "inputs": [],
      "name": "DEFAULT_ADMIN_ROLE",
      "outputs": [
        {
          "internalType": "bytes32",
          "name": "",
          "type": "bytes32"
        }
      ],
      "stateMutability": "view",
      "type": "function"
    },
    {
      "inputs": [],
      "name": "amount",
      "outputs": [
        {
          "internalType": "uint256",
          "name": "",
          "type": "uint256"
        }
      ],
      "stateMutability": "view",
      "type": "function"
    },
    {
      "inputs": [],
      "name": "authorizer",
      "outputs": [
        {
          "internalType": "address",
          "name": "",
          "type": "address"
        }
      ],
      "stateMutability": "view",
      "type": "function"
    },
    {
      "inputs": [],
      "name": "count",
      "outputs": [
        {
          "internalType": "uint256",
          "name": "_value",
          "type": "uint256"
        }
      ],
      "stateMutability": "view",
      "type": "function"
    },
    {
      "inputs": [],
      "name": "erc20",
      "outputs": [
        {
          "internalType": "address",
          "name": "",
          "type": "address"
        }
      ],
      "stateMutability": "view",
      "type": "function"
    },
    {
      "inputs": [
        {
          "internalType": "bytes32",
          "name": "role",
          "type": "bytes32"
        }
      ],
      "name": "getRoleAdmin",
      "outputs": [
        {
          "internalType": "bytes32",
          "name": "",
          "type": "bytes32"
        }
      ],
      "stateMutability": "view",
      "type": "function"
    },
    {
      "inputs": [
        {
          "internalType": "bytes32",
          "name": "role",
          "type": "bytes32"
        },
        {
          "internalType": "uint256",
          "name": "index",
          "type": "uint256"
        }
      ],
      "name": "getRoleMember",
      "outputs": [
        {
          "internalType": "address",
          "name": "",
          "type": "address"
        }
      ],
      "stateMutability": "view",
      "type": "function"
    },
    {
      "inputs": [
        {
          "internalType": "bytes32",
          "name": "role",
          "type": "bytes32"
        }
      ],
      "name": "getRoleMemberCount",
      "outputs": [
        {
          "internalType": "uint256",
          "name": "",
          "type": "uint256"
        }
      ],
      "stateMutability": "view",
      "type": "function"
    },
    {
      "inputs": [
        {
          "internalType": "bytes32",
          "name": "role",
          "type": "bytes32"
        },
        {
          "internalType": "address",
          "name": "account",
          "type": "address"
        }
      ],
      "name": "grantRole",
      "outputs": [],
      "stateMutability": "nonpayable",
      "type": "function"
    },
    {
      "inputs": [
        {
          "internalType": "bytes32",
          "name": "role",
          "type": "bytes32"
        },
        {
          "internalType": "address",
          "name": "account",
          "type": "address"
        }
      ],
      "name": "hasRole",
      "outputs": [
        {
          "internalType": "bool",
          "name": "",
          "type": "bool"
        }
      ],
      "stateMutability": "view",
      "type": "function"
    },
    {
      "inputs": [
        {
          "internalType": "address",
          "name": "_recipient",
          "type": "address"
        }
      ],
      "name": "isRedeemed",
      "outputs": [
        {
          "internalType": "bool",
          "name": "",
          "type": "bool"
        }
      ],
      "stateMutability": "view",
      "type": "function"
    },
    {
      "inputs": [
        {
          "internalType": "address",
          "name": "_recipient",
          "type": "address"
        },
        {
          "internalType": "uint256",
          "name": "_amount",
          "type": "uint256"
        },
        {
          "internalType": "bytes",
          "name": "_structHash",
          "type": "bytes"
        }
      ],
      "name": "redeem",
      "outputs": [],
      "stateMutability": "nonpayable",
      "type": "function"
    },
    {
      "inputs": [
        {
          "internalType": "bytes32",
          "name": "role",
          "type": "bytes32"
        },
        {
          "internalType": "address",
          "name": "account",
          "type": "address"
        }
      ],
      "name": "renounceRole",
      "outputs": [],
      "stateMutability": "nonpayable",
      "type": "function"
    },
    {
      "inputs": [
        {
          "internalType": "bytes32",
          "name": "role",
          "type": "bytes32"
        },
        {
          "internalType": "address",
          "name": "account",
          "type": "address"
        }
      ],
      "name": "revokeRole",
      "outputs": [],
      "stateMutability": "nonpayable",
      "type": "function"
    },
    {
      "inputs": [
        {
          "internalType": "address",
          "name": "_authorizer",
          "type": "address"
        }
      ],
      "name": "setAuthorizer",
      "outputs": [],
      "stateMutability": "nonpayable",
      "type": "function"
    },
    {
      "inputs": [
        {
          "internalType": "address",
          "name": "_sponsor",
          "type": "address"
        }
      ],
      "name": "setSponsor",
      "outputs": [],
      "stateMutability": "nonpayable",
      "type": "function"
    },
    {
      "inputs": [],
      "name": "sponsor",
      "outputs": [
        {
          "internalType": "address",
          "name": "",
          "type": "address"
        }
      ],
      "stateMutability": "view",
      "type": "function"
    },
    {
      "inputs": [
        {
          "internalType": "bytes4",
          "name": "interfaceId",
          "type": "bytes4"
        }
      ],
      "name": "supportsInterface",
      "outputs": [
        {
          "internalType": "bool",
          "name": "",
          "type": "bool"
        }
      ],
      "stateMutability": "view",
      "type": "function"
    }
  ],
  "bytecode": "0x6101206040523480156200001257600080fd5b50604051620016853803806200168583398101604081905262000035916200031e565b604080518082018252600681526504d79204170760d41b6020808301918252835180850190945260018452603160f81b908401528151902060c08190527fc89efdaa54c0f20c7adf612882df0950f5a951637e0307cdcb4c672f298b8bc660e08190524660a0529192917f8b73c3c69bb8fe3d512ecc4cf759cc79239f7b179b0ffacaa9a75d522b39400f620000cd81848462000134565b6080526101005250620000f1925060009150620000eb905062000170565b62000174565b600280546001600160a01b039485166001600160a01b03199182161790915560038054938516938216939093179092556004805491909316911617905562000393565b600083838346306040516020016200015195949392919062000367565b6040516020818303038152906040528051906020012090509392505050565b3390565b6200018b8282620001b760201b6200062e1760201c565b6000828152600160209081526040909120620001b29183906200063c620001c7821b17901c565b505050565b620001c38282620001e7565b5050565b6000620001de836001600160a01b03841662000271565b90505b92915050565b620001f38282620002c0565b620001c3576000828152602081815260408083206001600160a01b03851684529091529020805460ff191660011790556200022d62000170565b6001600160a01b0316816001600160a01b0316837f2f8788117e7eff1d82e926ec794901d17c78024a50270940304540a733656f0d60405160405180910390a45050565b60006200027f8383620002e9565b620002b757508154600181810184556000848152602080822090930184905584548482528286019093526040902091909155620001e1565b506000620001e1565b6000918252602082815260408084206001600160a01b0393909316845291905290205460ff1690565b60009081526001919091016020526040902054151590565b80516001600160a01b03811681146200031957600080fd5b919050565b60008060006060848603121562000333578283fd5b6200033e8462000301565b92506200034e6020850162000301565b91506200035e6040850162000301565b90509250925092565b9485526020850193909352604084019190915260608301526001600160a01b0316608082015260a00190565b60805160a05160c05160e051610100516112ad620003d860003960006108e6015260006109280152600061090701526000610894015260006108bd01526112ad6000f3fe608060405234801561001057600080fd5b50600436106101165760003560e01c8063785e9e86116100a2578063aa8c217c11610071578063aa8c217c14610218578063ca15c87314610220578063ca33056314610233578063d09edf3114610246578063d547741f1461024e57610116565b8063785e9e86146101e25780639010d07c146101ea57806391d14854146101fd578063a217fddf1461021057610116565b8063248a9ca3116100e9578063248a9ca3146101815780632f2ff15d1461019457806336568abe146101a757806359753fb1146101ba57806377c93662146101cd57610116565b806301ffc9a71461011b578063058a628f1461014457806306661abd1461015957806310badf4e1461016e575b600080fd5b61012e610129366004610e44565b610261565b60405161013b9190610ed8565b60405180910390f35b610157610152366004610ce2565b61028e565b005b6101616102e2565b60405161013b9190610ee3565b61015761017c366004610cfc565b6102e8565b61016161018f366004610de0565b6104c4565b6101576101a2366004610df8565b6104d9565b6101576101b5366004610df8565b610500565b6101576101c8366004610ce2565b610522565b6101d561056d565b60405161013b9190610e87565b6101d561057c565b6101d56101f8366004610e23565b61058b565b61012e61020b366004610df8565b6105ac565b6101616105d5565b6101616105da565b61016161022e366004610de0565b6105e0565b61012e610241366004610ce2565b6105f7565b6101d5610615565b61015761025c366004610df8565b610624565b60006001600160e01b03198216635a05180f60e01b1480610286575061028682610651565b90505b919050565b61029b600061020b610676565b6102c05760405162461bcd60e51b81526004016102b7906110e6565b60405180910390fd5b600380546001600160a01b0319166001600160a01b0392909216919091179055565b60055481565b6001600160a01b03831660009081526007602052604090205460ff16156103215760405162461bcd60e51b81526004016102b790611196565b60006103767fdb67adb4efd6ae16ace0713aeb18100134fff9487228b793b8dc1e70c20eceee858560405160200161035b93929190610eec565b6040516020818303038152906040528051906020012061067b565b90506000610384828461068e565b6003549091506001600160a01b038083169116146103b45760405162461bcd60e51b81526004016102b79061115f565b600254600480546040516323b872dd60e01b81526001600160a01b03938416936323b872dd936103ec93909116918a918a9101610e9b565b602060405180830381600087803b15801561040657600080fd5b505af115801561041a573d6000803e3d6000fd5b505050506040513d601f19601f8201168201806040525081019061043e9190610db9565b5061044960056106d9565b836006600082825461045b919061121c565b90915550506001600160a01b03851660009081526007602052604090819020805460ff19166001179055517f222838db2794d11532d940e8dec38ae307ed0b63cd97c233322e221f998767a6906104b59087908790610ebf565b60405180910390a15050505050565b60009081526020819052604090206001015490565b6104e382826106e2565b60008281526001602052604090206104fb908261063c565b505050565b61050a8282610712565b60008281526001602052604090206104fb9082610754565b61052f600061020b610676565b61054b5760405162461bcd60e51b81526004016102b7906110e6565b600480546001600160a01b0319166001600160a01b0392909216919091179055565b6004546001600160a01b031681565b6002546001600160a01b031681565b60008281526001602052604081206105a39083610769565b90505b92915050565b6000918252602082815260408084206001600160a01b0393909316845291905290205460ff1690565b600081565b60065481565b600081815260016020526040812061028690610775565b6001600160a01b031660009081526007602052604090205460ff1690565b6003546001600160a01b031681565b61050a8282610780565b61063882826107a8565b5050565b60006105a3836001600160a01b03841661082d565b60006001600160e01b03198216637965db0b60e01b1480610286575061028682610877565b335b90565b6000610286610688610890565b83610953565b600081516041146106b15760405162461bcd60e51b81526004016102b79061101d565b60208201516040830151606084015160001a6106cf86828585610986565b9695505050505050565b80546001019055565b6106f66106ee836104c4565b61020b610676565b61062e5760405162461bcd60e51b81526004016102b790610fce565b61071a610676565b6001600160a01b0316816001600160a01b03161461074a5760405162461bcd60e51b81526004016102b7906111cd565b6106388282610a7c565b60006105a3836001600160a01b038416610aff565b60006105a38383610c1c565b600061028682610c75565b61078c6106ee836104c4565b61074a5760405162461bcd60e51b81526004016102b790611096565b6107b282826105ac565b610638576000828152602081815260408083206001600160a01b03851684529091529020805460ff191660011790556107e9610676565b6001600160a01b0316816001600160a01b0316837f2f8788117e7eff1d82e926ec794901d17c78024a50270940304540a733656f0d60405160405180910390a45050565b60006108398383610c79565b61086f575081546001818101845560008481526020808220909301849055845484825282860190935260409020919091556105a6565b5060006105a6565b6001600160e01b031981166301ffc9a760e01b14919050565b60007f00000000000000000000000000000000000000000000000000000000000000004614156108e157507f0000000000000000000000000000000000000000000000000000000000000000610678565b61094c7f00000000000000000000000000000000000000000000000000000000000000007f00000000000000000000000000000000000000000000000000000000000000007f0000000000000000000000000000000000000000000000000000000000000000610c91565b9050610678565b60008282604051602001610968929190610e6c565b60405160208183030381529060405280519060200120905092915050565b60007f7fffffffffffffffffffffffffffffff5d576e7357a4501ddfe92f46681b20a08211156109c85760405162461bcd60e51b81526004016102b790611054565b8360ff16601b14806109dd57508360ff16601c145b6109f95760405162461bcd60e51b81526004016102b79061111d565b600060018686868660405160008152602001604052604051610a1e9493929190610f37565b6020604051602081039080840390855afa158015610a40573d6000803e3d6000fd5b5050604051601f1901519150506001600160a01b038116610a735760405162461bcd60e51b81526004016102b790610f55565b95945050505050565b610a8682826105ac565b15610638576000828152602081815260408083206001600160a01b03851684529091529020805460ff19169055610abb610676565b6001600160a01b0316816001600160a01b0316837ff6391f5c32d9c69d2a47ea670b442974b53935d1edc7fd64eb21e047a839171b60405160405180910390a45050565b60008181526001830160205260408120548015610c12576000610b23600183611234565b8554909150600090610b3790600190611234565b90506000866000018281548110610b5e57634e487b7160e01b600052603260045260246000fd5b9060005260206000200154905080876000018481548110610b8f57634e487b7160e01b600052603260045260246000fd5b600091825260209091200155610ba683600161121c565b60008281526001890160205260409020558654879080610bd657634e487b7160e01b600052603160045260246000fd5b600190038181906000526020600020016000905590558660010160008781526020019081526020016000206000905560019450505050506105a6565b60009150506105a6565b81546000908210610c3f5760405162461bcd60e51b81526004016102b790610f8c565b826000018281548110610c6257634e487b7160e01b600052603260045260246000fd5b9060005260206000200154905092915050565b5490565b60009081526001919091016020526040902054151590565b60008383834630604051602001610cac959493929190610f0b565b6040516020818303038152906040528051906020012090509392505050565b80356001600160a01b038116811461028957600080fd5b600060208284031215610cf3578081fd5b6105a382610ccb565b600080600060608486031215610d10578182fd5b610d1984610ccb565b92506020808501359250604085013567ffffffffffffffff80821115610d3d578384fd5b818701915087601f830112610d50578384fd5b813581811115610d6257610d62611261565b604051601f8201601f1916810185018381118282101715610d8557610d85611261565b60405281815283820185018a1015610d9b578586fd5b81858501868301378585838301015280955050505050509250925092565b600060208284031215610dca578081fd5b81518015158114610dd9578182fd5b9392505050565b600060208284031215610df1578081fd5b5035919050565b60008060408385031215610e0a578182fd5b82359150610e1a60208401610ccb565b90509250929050565b60008060408385031215610e35578182fd5b50508035926020909101359150565b600060208284031215610e55578081fd5b81356001600160e01b031981168114610dd9578182fd5b61190160f01b81526002810192909252602282015260420190565b6001600160a01b0391909116815260200190565b6001600160a01b039384168152919092166020820152604081019190915260600190565b6001600160a01b03929092168252602082015260400190565b901515815260200190565b90815260200190565b9283526001600160a01b03919091166020830152604082015260600190565b9485526020850193909352604084019190915260608301526001600160a01b0316608082015260a00190565b93845260ff9290921660208401526040830152606082015260800190565b60208082526018908201527f45434453413a20696e76616c6964207369676e61747572650000000000000000604082015260600190565b60208082526022908201527f456e756d657261626c655365743a20696e646578206f7574206f6620626f756e604082015261647360f01b606082015260800190565b6020808252602f908201527f416363657373436f6e74726f6c3a2073656e646572206d75737420626520616e60408201526e0818591b5a5b881d1bc819dc985b9d608a1b606082015260800190565b6020808252601f908201527f45434453413a20696e76616c6964207369676e6174757265206c656e67746800604082015260600190565b60208082526022908201527f45434453413a20696e76616c6964207369676e6174757265202773272076616c604082015261756560f01b606082015260800190565b60208082526030908201527f416363657373436f6e74726f6c3a2073656e646572206d75737420626520616e60408201526f2061646d696e20746f207265766f6b6560801b606082015260800190565b6020808252601d908201527f41697264726f703a206d75737420686176652061646d696e20726f6c65000000604082015260600190565b60208082526022908201527f45434453413a20696e76616c6964207369676e6174757265202776272076616c604082015261756560f01b606082015260800190565b6020808252601b908201527f41697264726f703a20696e76616c696420617574686f72697a65720000000000604082015260600190565b6020808252601a908201527f41697264726f703a206475706c6963617465642072656465656d000000000000604082015260600190565b6020808252602f908201527f416363657373436f6e74726f6c3a2063616e206f6e6c792072656e6f756e636560408201526e103937b632b9903337b91039b2b63360891b606082015260800190565b6000821982111561122f5761122f61124b565b500190565b6000828210156112465761124661124b565b500390565b634e487b7160e01b600052601160045260246000fd5b634e487b7160e01b600052604160045260246000fdfea264697066735822122071eded49e900f144b34b68bbdefda8eb602ba9e41be8835af79f7fdb65fe595d64736f6c63430008000033",
  "linkReferences": {},
  "deployedLinkReferences": {}
}