{
  "_format": "hh-sol-artifact-1",
  "contractName": "Alpha",
  "sourceName": "contracts/beeper/Alpha.sol",
  "abi": [
    {
      "inputs": [
        {
          "internalType": "string",
          "name": "_name",
          "type": "string"
        },
        {
          "internalType": "string",
          "name": "_symbol",
          "type": "string"
        },
        {
          "internalType": "address",
          "name": "_erc20",
          "type": "address"
        },
        {
          "internalType": "uint256",
          "name": "_rate",
          "type": "uint256"
        }
      ],
      "stateMutability": "nonpayable",
      "type": "constructor"
    },
    {
      "anonymous": false,
      "inputs": [
        {
          "indexed": true,
          "internalType": "address",
          "name": "owner",
          "type": "address"
        },
        {
          "indexed": true,
          "internalType": "address",
          "name": "approved",
          "type": "address"
        },
        {
          "indexed": true,
          "internalType": "uint256",
          "name": "tokenId",
          "type": "uint256"
        }
      ],
      "name": "Approval",
      "type": "event"
    },
    {
      "anonymous": false,
      "inputs": [
        {
          "indexed": true,
          "internalType": "address",
          "name": "owner",
          "type": "address"
        },
        {
          "indexed": true,
          "internalType": "address",
          "name": "operator",
          "type": "address"
        },
        {
          "indexed": false,
          "internalType": "bool",
          "name": "approved",
          "type": "bool"
        }
      ],
      "name": "ApprovalForAll",
      "type": "event"
    },
    {
      "anonymous": false,
      "inputs": [
        {
          "indexed": true,
          "internalType": "address",
          "name": "from",
          "type": "address"
        },
        {
          "indexed": true,
          "internalType": "uint256",
          "name": "tokenId",
          "type": "uint256"
        }
      ],
      "name": "Burn",
      "type": "event"
    },
    {
      "anonymous": false,
      "inputs": [
        {
          "indexed": true,
          "internalType": "address",
          "name": "from",
          "type": "address"
        },
        {
          "indexed": true,
          "internalType": "uint256",
          "name": "tokenId",
          "type": "uint256"
        }
      ],
      "name": "Mint",
      "type": "event"
    },
    {
      "anonymous": false,
      "inputs": [
        {
          "indexed": true,
          "internalType": "address",
          "name": "from",
          "type": "address"
        },
        {
          "indexed": true,
          "internalType": "address",
          "name": "to",
          "type": "address"
        },
        {
          "indexed": true,
          "internalType": "uint256",
          "name": "tokenId",
          "type": "uint256"
        }
      ],
      "name": "Transfer",
      "type": "event"
    },
    {
      "inputs": [
        {
          "internalType": "address",
          "name": "to",
          "type": "address"
        },
        {
          "internalType": "uint256",
          "name": "tokenId",
          "type": "uint256"
        }
      ],
      "name": "approve",
      "outputs": [],
      "stateMutability": "nonpayable",
      "type": "function"
    },
    {
      "inputs": [
        {
          "internalType": "address",
          "name": "owner",
          "type": "address"
        }
      ],
      "name": "balanceOf",
      "outputs": [
        {
          "internalType": "uint256",
          "name": "",
          "type": "uint256"
        }
      ],
      "stateMutability": "view",
      "type": "function"
    },
    {
      "inputs": [
        {
          "internalType": "uint256",
          "name": "tokenId",
          "type": "uint256"
        }
      ],
      "name": "burn",
      "outputs": [],
      "stateMutability": "nonpayable",
      "type": "function"
    },
    {
      "inputs": [],
      "name": "erc20",
      "outputs": [
        {
          "internalType": "address",
          "name": "",
          "type": "address"
        }
      ],
      "stateMutability": "view",
      "type": "function"
    },
    {
      "inputs": [
        {
          "internalType": "uint256",
          "name": "tokenId",
          "type": "uint256"
        }
      ],
      "name": "getApproved",
      "outputs": [
        {
          "internalType": "address",
          "name": "",
          "type": "address"
        }
      ],
      "stateMutability": "view",
      "type": "function"
    },
    {
      "inputs": [
        {
          "internalType": "address",
          "name": "owner",
          "type": "address"
        },
        {
          "internalType": "address",
          "name": "operator",
          "type": "address"
        }
      ],
      "name": "isApprovedForAll",
      "outputs": [
        {
          "internalType": "bool",
          "name": "",
          "type": "bool"
        }
      ],
      "stateMutability": "view",
      "type": "function"
    },
    {
      "inputs": [],
      "name": "mint",
      "outputs": [
        {
          "internalType": "uint256",
          "name": "tokenId",
          "type": "uint256"
        }
      ],
      "stateMutability": "nonpayable",
      "type": "function"
    },
    {
      "inputs": [],
      "name": "name",
      "outputs": [
        {
          "internalType": "string",
          "name": "",
          "type": "string"
        }
      ],
      "stateMutability": "view",
      "type": "function"
    },
    {
      "inputs": [
        {
          "internalType": "uint256",
          "name": "tokenId",
          "type": "uint256"
        }
      ],
      "name": "ownerOf",
      "outputs": [
        {
          "internalType": "address",
          "name": "",
          "type": "address"
        }
      ],
      "stateMutability": "view",
      "type": "function"
    },
    {
      "inputs": [],
      "name": "rate",
      "outputs": [
        {
          "internalType": "uint256",
          "name": "",
          "type": "uint256"
        }
      ],
      "stateMutability": "view",
      "type": "function"
    },
    {
      "inputs": [
        {
          "internalType": "address",
          "name": "from",
          "type": "address"
        },
        {
          "internalType": "address",
          "name": "to",
          "type": "address"
        },
        {
          "internalType": "uint256",
          "name": "tokenId",
          "type": "uint256"
        }
      ],
      "name": "safeTransferFrom",
      "outputs": [],
      "stateMutability": "nonpayable",
      "type": "function"
    },
    {
      "inputs": [
        {
          "internalType": "address",
          "name": "from",
          "type": "address"
        },
        {
          "internalType": "address",
          "name": "to",
          "type": "address"
        },
        {
          "internalType": "uint256",
          "name": "tokenId",
          "type": "uint256"
        },
        {
          "internalType": "bytes",
          "name": "_data",
          "type": "bytes"
        }
      ],
      "name": "safeTransferFrom",
      "outputs": [],
      "stateMutability": "nonpayable",
      "type": "function"
    },
    {
      "inputs": [
        {
          "internalType": "address",
          "name": "operator",
          "type": "address"
        },
        {
          "internalType": "bool",
          "name": "approved",
          "type": "bool"
        }
      ],
      "name": "setApprovalForAll",
      "outputs": [],
      "stateMutability": "nonpayable",
      "type": "function"
    },
    {
      "inputs": [
        {
          "internalType": "bytes4",
          "name": "interfaceId",
          "type": "bytes4"
        }
      ],
      "name": "supportsInterface",
      "outputs": [
        {
          "internalType": "bool",
          "name": "",
          "type": "bool"
        }
      ],
      "stateMutability": "view",
      "type": "function"
    },
    {
      "inputs": [],
      "name": "symbol",
      "outputs": [
        {
          "internalType": "string",
          "name": "",
          "type": "string"
        }
      ],
      "stateMutability": "view",
      "type": "function"
    },
    {
      "inputs": [
        {
          "internalType": "uint256",
          "name": "tokenId",
          "type": "uint256"
        }
      ],
      "name": "tokenURI",
      "outputs": [
        {
          "internalType": "string",
          "name": "",
          "type": "string"
        }
      ],
      "stateMutability": "view",
      "type": "function"
    },
    {
      "inputs": [
        {
          "internalType": "address",
          "name": "from",
          "type": "address"
        },
        {
          "internalType": "address",
          "name": "to",
          "type": "address"
        },
        {
          "internalType": "uint256",
          "name": "tokenId",
          "type": "uint256"
        }
      ],
      "name": "transferFrom",
      "outputs": [],
      "stateMutability": "nonpayable",
      "type": "function"
    }
  ],
  "bytecode": "0x60a0604052600160808190526008553480156200001b57600080fd5b5060405162001c4438038062001c448339810160408190526200003e91620001ee565b835184908490620000579060009060208501906200009d565b5080516200006d9060019060208401906200009d565b5050600680546001600160a01b0319166001600160a01b03949094169390931790925560075550620002d0915050565b828054620000ab906200027d565b90600052602060002090601f016020900481019282620000cf57600085556200011a565b82601f10620000ea57805160ff19168380011785556200011a565b828001600101855582156200011a579182015b828111156200011a578251825591602001919060010190620000fd565b50620001289291506200012c565b5090565b5b808211156200012857600081556001016200012d565b600082601f83011262000154578081fd5b81516001600160401b0380821115620001715762000171620002ba565b6040516020601f8401601f1916820181018381118382101715620001995762000199620002ba565b6040528382528584018101871015620001b0578485fd5b8492505b83831015620001d35785830181015182840182015291820191620001b4565b83831115620001e457848185840101525b5095945050505050565b6000806000806080858703121562000204578384fd5b84516001600160401b03808211156200021b578586fd5b620002298883890162000143565b955060208701519150808211156200023f578485fd5b506200024e8782880162000143565b604087015190945090506001600160a01b03811681146200026d578283fd5b6060959095015193969295505050565b6002810460018216806200029257607f821691505b60208210811415620002b457634e487b7160e01b600052602260045260246000fd5b50919050565b634e487b7160e01b600052604160045260246000fd5b61196480620002e06000396000f3fe608060405234801561001057600080fd5b506004361061010b5760003560e01c806342966c68116100a257806395d89b411161007157806395d89b4114610207578063a22cb4651461020f578063b88d4fde14610222578063c87b56dd14610235578063e985e9c5146102485761010b565b806342966c68146101c65780636352211e146101d957806370a08231146101ec578063785e9e86146101ff5761010b565b80631249c58b116100de5780631249c58b1461018357806323b872dd146101985780632c4e722e146101ab57806342842e0e146101b35761010b565b806301ffc9a71461011057806306fdde0314610139578063081812fc1461014e578063095ea7b31461016e575b600080fd5b61012361011e366004611233565b61025b565b604051610130919061136c565b60405180910390f35b61014161026e565b6040516101309190611377565b61016161015c36600461126b565b610301565b60405161013091906112de565b61018161017c3660046111ee565b61034d565b005b61018b6103e5565b60405161013091906117e3565b6101816101a63660046110b1565b610545565b61018b61057d565b6101816101c13660046110b1565b610583565b6101816101d436600461126b565b61059e565b6101616101e736600461126b565b6106fa565b61018b6101fa366004611065565b61072f565b610161610773565b610141610782565b61018161021d3660046111b8565b610791565b6101816102303660046110ec565b61085f565b61014161024336600461126b565b61089e565b61012361025636600461107f565b610921565b60006102668261094f565b90505b919050565b60606000805461027d9061185b565b80601f01602080910402602001604051908101604052809291908181526020018280546102a99061185b565b80156102f65780601f106102cb576101008083540402835291602001916102f6565b820191906000526020600020905b8154815290600101906020018083116102d957829003601f168201915b505050505090505b90565b600061030c8261098f565b6103315760405162461bcd60e51b81526004016103289061166d565b60405180910390fd5b506000908152600460205260409020546001600160a01b031690565b6000610358826106fa565b9050806001600160a01b0316836001600160a01b0316141561038c5760405162461bcd60e51b815260040161032890611751565b806001600160a01b031661039e6109ac565b6001600160a01b031614806103ba57506103ba816102566109ac565b6103d65760405162461bcd60e51b815260040161032890611548565b6103e083836109b0565b505050565b6000600960006103f36109ac565b6001600160a01b031681526020810191909152604001600020541561042a5760405162461bcd60e51b815260040161032890611511565b6104346008610a1e565b6006549091506001600160a01b03166323b872dd6104506109ac565b306007546040518463ffffffff1660e01b8152600401610472939291906112f2565b602060405180830381600087803b15801561048c57600080fd5b505af11580156104a0573d6000803e3d6000fd5b505050506040513d601f19601f820116820180604052508101906104c49190611217565b506104d66104d06109ac565b82610a22565b80600960006104e36109ac565b6001600160a01b03168152602081019190915260400160002055806105066109ac565b6001600160a01b03167f0f6798a560793a54c3bcfe86a93cde1e73087d944c0ea20544137d412139688560405160405180910390a36102fe6008610a40565b6105566105506109ac565b82610a49565b6105725760405162461bcd60e51b815260040161032890611792565b6103e0838383610ace565b60075481565b6103e08383836040518060200160405280600081525061085f565b80158015906105d85750600960006105b46109ac565b6001600160a01b03166001600160a01b031681526020019081526020016000205481145b6105f45760405162461bcd60e51b81526004016103289061138a565b600960006106006109ac565b6001600160a01b03166001600160a01b031681526020019081526020016000206000905561062d81610bfb565b6006546001600160a01b031663a9059cbb6106466109ac565b6007546040518363ffffffff1660e01b8152600401610666929190611353565b602060405180830381600087803b15801561068057600080fd5b505af1158015610694573d6000803e3d6000fd5b505050506040513d601f19601f820116820180604052508101906106b89190611217565b50806106c26109ac565b6001600160a01b03167fcc16f5dbb4873280815c1ee09dbd06736cffcc184412cf7a71a0fdb75d397ca560405160405180910390a350565b6000818152600260205260408120546001600160a01b0316806102665760405162461bcd60e51b8152600401610328906115ef565b60006001600160a01b0382166107575760405162461bcd60e51b8152600401610328906115a5565b506001600160a01b031660009081526003602052604090205490565b6006546001600160a01b031681565b60606001805461027d9061185b565b6107996109ac565b6001600160a01b0316826001600160a01b031614156107ca5760405162461bcd60e51b81526004016103289061148e565b80600560006107d76109ac565b6001600160a01b03908116825260208083019390935260409182016000908120918716808252919093529120805460ff19169215159290921790915561081b6109ac565b6001600160a01b03167f17307eab39ab6107e8899845ad3d59bd9653f200f220920489ca2b5937696c3183604051610853919061136c565b60405180910390a35050565b61087061086a6109ac565b83610a49565b61088c5760405162461bcd60e51b815260040161032890611792565b61089884848484610ca2565b50505050565b60606108a98261098f565b6108c55760405162461bcd60e51b815260040161032890611702565b60006108cf610cd5565b905060008151116108ef576040518060200160405280600081525061091a565b806108f984610ce7565b60405160200161090a9291906112af565b6040516020818303038152906040525b9392505050565b6001600160a01b03918216600090815260056020908152604080832093909416825291909152205460ff1690565b60006001600160e01b031982166380ac58cd60e01b148061098057506001600160e01b03198216635b5e139f60e01b145b80610266575061026682610e02565b6000908152600260205260409020546001600160a01b0316151590565b3390565b600081815260046020526040902080546001600160a01b0319166001600160a01b03841690811790915581906109e5826106fa565b6001600160a01b03167f8c5be1e5ebec7d5bd14f71427d1e84f3dd0314c0f7b2291e5b200ac8c7c3b92560405160405180910390a45050565b5490565b610a3c828260405180602001604052806000815250610e1b565b5050565b80546001019055565b6000610a548261098f565b610a705760405162461bcd60e51b8152600401610328906114c5565b6000610a7b836106fa565b9050806001600160a01b0316846001600160a01b03161480610ab65750836001600160a01b0316610aab84610301565b6001600160a01b0316145b80610ac65750610ac68185610921565b949350505050565b826001600160a01b0316610ae1826106fa565b6001600160a01b031614610b075760405162461bcd60e51b8152600401610328906116b9565b6001600160a01b038216610b2d5760405162461bcd60e51b81526004016103289061144a565b610b388383836103e0565b610b436000826109b0565b6001600160a01b0383166000908152600360205260408120805460019290610b6c908490611818565b90915550506001600160a01b0382166000908152600360205260408120805460019290610b9a9084906117ec565b909155505060008181526002602052604080822080546001600160a01b0319166001600160a01b0386811691821790925591518493918716917fddf252ad1be2c89b69c2b068fc378daa952ba7f163c4a11628f55a4df523b3ef91a4505050565b6000610c06826106fa565b9050610c14816000846103e0565b610c1f6000836109b0565b6001600160a01b0381166000908152600360205260408120805460019290610c48908490611818565b909155505060008281526002602052604080822080546001600160a01b0319169055518391906001600160a01b038416907fddf252ad1be2c89b69c2b068fc378daa952ba7f163c4a11628f55a4df523b3ef908390a45050565b610cad848484610ace565b610cb984848484610e4e565b6108985760405162461bcd60e51b8152600401610328906113c1565b60408051602081019091526000815290565b606081610d0c57506040805180820190915260018152600360fc1b6020820152610269565b8160005b8115610d365780610d2081611896565b9150610d2f9050600a83611804565b9150610d10565b60008167ffffffffffffffff811115610d5f57634e487b7160e01b600052604160045260246000fd5b6040519080825280601f01601f191660200182016040528015610d89576020820181803683370190505b5090505b8415610ac657610d9e600183611818565b9150610dab600a866118b1565b610db69060306117ec565b60f81b818381518110610dd957634e487b7160e01b600052603260045260246000fd5b60200101906001600160f81b031916908160001a905350610dfb600a86611804565b9450610d8d565b6001600160e01b031981166301ffc9a760e01b14919050565b610e258383610f69565b610e326000848484610e4e565b6103e05760405162461bcd60e51b8152600401610328906113c1565b6000610e62846001600160a01b0316611048565b15610f5e57836001600160a01b031663150b7a02610e7e6109ac565b8786866040518563ffffffff1660e01b8152600401610ea09493929190611316565b602060405180830381600087803b158015610eba57600080fd5b505af1925050508015610eea575060408051601f3d908101601f19168201909252610ee79181019061124f565b60015b610f44573d808015610f18576040519150601f19603f3d011682016040523d82523d6000602084013e610f1d565b606091505b508051610f3c5760405162461bcd60e51b8152600401610328906113c1565b805181602001fd5b6001600160e01b031916630a85bd0160e11b149050610ac6565b506001949350505050565b6001600160a01b038216610f8f5760405162461bcd60e51b815260040161032890611638565b610f988161098f565b15610fb55760405162461bcd60e51b815260040161032890611413565b610fc1600083836103e0565b6001600160a01b0382166000908152600360205260408120805460019290610fea9084906117ec565b909155505060008181526002602052604080822080546001600160a01b0319166001600160a01b03861690811790915590518392907fddf252ad1be2c89b69c2b068fc378daa952ba7f163c4a11628f55a4df523b3ef908290a45050565b3b151590565b80356001600160a01b038116811461026957600080fd5b600060208284031215611076578081fd5b61091a8261104e565b60008060408385031215611091578081fd5b61109a8361104e565b91506110a86020840161104e565b90509250929050565b6000806000606084860312156110c5578081fd5b6110ce8461104e565b92506110dc6020850161104e565b9150604084013590509250925092565b60008060008060808587031215611101578081fd5b61110a8561104e565b9350602061111981870161104e565b935060408601359250606086013567ffffffffffffffff8082111561113c578384fd5b818801915088601f83011261114f578384fd5b813581811115611161576111616118f1565b604051601f8201601f1916810185018381118282101715611184576111846118f1565b60405281815283820185018b101561119a578586fd5b81858501868301379081019093019390935250939692955090935050565b600080604083850312156111ca578182fd5b6111d38361104e565b915060208301356111e381611907565b809150509250929050565b60008060408385031215611200578182fd5b6112098361104e565b946020939093013593505050565b600060208284031215611228578081fd5b815161091a81611907565b600060208284031215611244578081fd5b813561091a81611918565b600060208284031215611260578081fd5b815161091a81611918565b60006020828403121561127c578081fd5b5035919050565b6000815180845261129b81602086016020860161182f565b601f01601f19169290920160200192915050565b600083516112c181846020880161182f565b8351908301906112d581836020880161182f565b01949350505050565b6001600160a01b0391909116815260200190565b6001600160a01b039384168152919092166020820152604081019190915260600190565b6001600160a01b038581168252841660208201526040810183905260806060820181905260009061134990830184611283565b9695505050505050565b6001600160a01b03929092168252602082015260400190565b901515815260200190565b60006020825261091a6020830184611283565b6020808252601b908201527f416c7068613a2073656e646572206973206e6f7420686f6c6465720000000000604082015260600190565b60208082526032908201527f4552433732313a207472616e7366657220746f206e6f6e20455243373231526560408201527131b2b4bb32b91034b6b83632b6b2b73a32b960711b606082015260800190565b6020808252601c908201527f4552433732313a20746f6b656e20616c7265616479206d696e74656400000000604082015260600190565b60208082526024908201527f4552433732313a207472616e7366657220746f20746865207a65726f206164646040820152637265737360e01b606082015260800190565b60208082526019908201527f4552433732313a20617070726f766520746f2063616c6c657200000000000000604082015260600190565b6020808252602c908201527f4552433732313a206f70657261746f7220717565727920666f72206e6f6e657860408201526b34b9ba32b73a103a37b5b2b760a11b606082015260800190565b6020808252601d908201527f416c7068613a2073656e64657220686173206265656e20686f6c646572000000604082015260600190565b60208082526038908201527f4552433732313a20617070726f76652063616c6c6572206973206e6f74206f7760408201527f6e6572206e6f7220617070726f76656420666f7220616c6c0000000000000000606082015260800190565b6020808252602a908201527f4552433732313a2062616c616e636520717565727920666f7220746865207a65604082015269726f206164647265737360b01b606082015260800190565b60208082526029908201527f4552433732313a206f776e657220717565727920666f72206e6f6e657869737460408201526832b73a103a37b5b2b760b91b606082015260800190565b6020808252818101527f4552433732313a206d696e7420746f20746865207a65726f2061646472657373604082015260600190565b6020808252602c908201527f4552433732313a20617070726f76656420717565727920666f72206e6f6e657860408201526b34b9ba32b73a103a37b5b2b760a11b606082015260800190565b60208082526029908201527f4552433732313a207472616e73666572206f6620746f6b656e2074686174206960408201526839903737ba1037bbb760b91b606082015260800190565b6020808252602f908201527f4552433732314d657461646174613a2055524920717565727920666f72206e6f60408201526e3732bc34b9ba32b73a103a37b5b2b760891b606082015260800190565b60208082526021908201527f4552433732313a20617070726f76616c20746f2063757272656e74206f776e656040820152603960f91b606082015260800190565b60208082526031908201527f4552433732313a207472616e736665722063616c6c6572206973206e6f74206f6040820152701ddb995c881b9bdc88185c1c1c9bdd9959607a1b606082015260800190565b90815260200190565b600082198211156117ff576117ff6118c5565b500190565b600082611813576118136118db565b500490565b60008282101561182a5761182a6118c5565b500390565b60005b8381101561184a578181015183820152602001611832565b838111156108985750506000910152565b60028104600182168061186f57607f821691505b6020821081141561189057634e487b7160e01b600052602260045260246000fd5b50919050565b60006000198214156118aa576118aa6118c5565b5060010190565b6000826118c0576118c06118db565b500690565b634e487b7160e01b600052601160045260246000fd5b634e487b7160e01b600052601260045260246000fd5b634e487b7160e01b600052604160045260246000fd5b801515811461191557600080fd5b50565b6001600160e01b03198116811461191557600080fdfea26469706673582212203dd646664f79c27058a840df82431d00dd49c2806c9f69752f040b4c6a90050164736f6c63430008000033",
  "linkReferences": {},
  "deployedLinkReferences": {}
}