{
  "_format": "hh-sol-artifact-1",
  "contractName": "Beta",
  "sourceName": "contracts/beeper/Beta.sol",
  "abi": [
    {
      "inputs": [
        {
          "internalType": "string",
          "name": "_name",
          "type": "string"
        },
        {
          "internalType": "string",
          "name": "_symbol",
          "type": "string"
        },
        {
          "internalType": "address",
          "name": "_erc721",
          "type": "address"
        }
      ],
      "stateMutability": "nonpayable",
      "type": "constructor"
    },
    {
      "anonymous": false,
      "inputs": [
        {
          "indexed": true,
          "internalType": "address",
          "name": "owner",
          "type": "address"
        },
        {
          "indexed": true,
          "internalType": "address",
          "name": "approved",
          "type": "address"
        },
        {
          "indexed": true,
          "internalType": "uint256",
          "name": "tokenId",
          "type": "uint256"
        }
      ],
      "name": "Approval",
      "type": "event"
    },
    {
      "anonymous": false,
      "inputs": [
        {
          "indexed": true,
          "internalType": "address",
          "name": "owner",
          "type": "address"
        },
        {
          "indexed": true,
          "internalType": "address",
          "name": "operator",
          "type": "address"
        },
        {
          "indexed": false,
          "internalType": "bool",
          "name": "approved",
          "type": "bool"
        }
      ],
      "name": "ApprovalForAll",
      "type": "event"
    },
    {
      "anonymous": false,
      "inputs": [
        {
          "indexed": true,
          "internalType": "address",
          "name": "from",
          "type": "address"
        },
        {
          "indexed": true,
          "internalType": "uint256",
          "name": "tokenId",
          "type": "uint256"
        }
      ],
      "name": "Burn",
      "type": "event"
    },
    {
      "anonymous": false,
      "inputs": [
        {
          "indexed": true,
          "internalType": "address",
          "name": "from",
          "type": "address"
        },
        {
          "indexed": true,
          "internalType": "uint256",
          "name": "tokenId",
          "type": "uint256"
        }
      ],
      "name": "Mint",
      "type": "event"
    },
    {
      "anonymous": false,
      "inputs": [
        {
          "indexed": true,
          "internalType": "address",
          "name": "from",
          "type": "address"
        },
        {
          "indexed": true,
          "internalType": "address",
          "name": "to",
          "type": "address"
        },
        {
          "indexed": true,
          "internalType": "uint256",
          "name": "tokenId",
          "type": "uint256"
        }
      ],
      "name": "Transfer",
      "type": "event"
    },
    {
      "inputs": [
        {
          "internalType": "address",
          "name": "to",
          "type": "address"
        },
        {
          "internalType": "uint256",
          "name": "tokenId",
          "type": "uint256"
        }
      ],
      "name": "approve",
      "outputs": [],
      "stateMutability": "nonpayable",
      "type": "function"
    },
    {
      "inputs": [
        {
          "internalType": "address",
          "name": "owner",
          "type": "address"
        }
      ],
      "name": "balanceOf",
      "outputs": [
        {
          "internalType": "uint256",
          "name": "",
          "type": "uint256"
        }
      ],
      "stateMutability": "view",
      "type": "function"
    },
    {
      "inputs": [
        {
          "internalType": "uint256",
          "name": "tokenId",
          "type": "uint256"
        }
      ],
      "name": "burn",
      "outputs": [],
      "stateMutability": "nonpayable",
      "type": "function"
    },
    {
      "inputs": [],
      "name": "erc721",
      "outputs": [
        {
          "internalType": "address",
          "name": "",
          "type": "address"
        }
      ],
      "stateMutability": "view",
      "type": "function"
    },
    {
      "inputs": [
        {
          "internalType": "uint256",
          "name": "tokenId",
          "type": "uint256"
        }
      ],
      "name": "getApproved",
      "outputs": [
        {
          "internalType": "address",
          "name": "",
          "type": "address"
        }
      ],
      "stateMutability": "view",
      "type": "function"
    },
    {
      "inputs": [
        {
          "internalType": "address",
          "name": "owner",
          "type": "address"
        },
        {
          "internalType": "address",
          "name": "operator",
          "type": "address"
        }
      ],
      "name": "isApprovedForAll",
      "outputs": [
        {
          "internalType": "bool",
          "name": "",
          "type": "bool"
        }
      ],
      "stateMutability": "view",
      "type": "function"
    },
    {
      "inputs": [
        {
          "internalType": "uint256",
          "name": "_tokenId",
          "type": "uint256"
        }
      ],
      "name": "mint",
      "outputs": [
        {
          "internalType": "uint256",
          "name": "tokenId",
          "type": "uint256"
        }
      ],
      "stateMutability": "nonpayable",
      "type": "function"
    },
    {
      "inputs": [],
      "name": "name",
      "outputs": [
        {
          "internalType": "string",
          "name": "",
          "type": "string"
        }
      ],
      "stateMutability": "view",
      "type": "function"
    },
    {
      "inputs": [
        {
          "internalType": "uint256",
          "name": "tokenId",
          "type": "uint256"
        }
      ],
      "name": "ownerOf",
      "outputs": [
        {
          "internalType": "address",
          "name": "",
          "type": "address"
        }
      ],
      "stateMutability": "view",
      "type": "function"
    },
    {
      "inputs": [
        {
          "internalType": "address",
          "name": "from",
          "type": "address"
        },
        {
          "internalType": "address",
          "name": "to",
          "type": "address"
        },
        {
          "internalType": "uint256",
          "name": "tokenId",
          "type": "uint256"
        }
      ],
      "name": "safeTransferFrom",
      "outputs": [],
      "stateMutability": "nonpayable",
      "type": "function"
    },
    {
      "inputs": [
        {
          "internalType": "address",
          "name": "from",
          "type": "address"
        },
        {
          "internalType": "address",
          "name": "to",
          "type": "address"
        },
        {
          "internalType": "uint256",
          "name": "tokenId",
          "type": "uint256"
        },
        {
          "internalType": "bytes",
          "name": "_data",
          "type": "bytes"
        }
      ],
      "name": "safeTransferFrom",
      "outputs": [],
      "stateMutability": "nonpayable",
      "type": "function"
    },
    {
      "inputs": [
        {
          "internalType": "address",
          "name": "operator",
          "type": "address"
        },
        {
          "internalType": "bool",
          "name": "approved",
          "type": "bool"
        }
      ],
      "name": "setApprovalForAll",
      "outputs": [],
      "stateMutability": "nonpayable",
      "type": "function"
    },
    {
      "inputs": [
        {
          "internalType": "bytes4",
          "name": "interfaceId",
          "type": "bytes4"
        }
      ],
      "name": "supportsInterface",
      "outputs": [
        {
          "internalType": "bool",
          "name": "",
          "type": "bool"
        }
      ],
      "stateMutability": "view",
      "type": "function"
    },
    {
      "inputs": [],
      "name": "symbol",
      "outputs": [
        {
          "internalType": "string",
          "name": "",
          "type": "string"
        }
      ],
      "stateMutability": "view",
      "type": "function"
    },
    {
      "inputs": [
        {
          "internalType": "uint256",
          "name": "tokenId",
          "type": "uint256"
        }
      ],
      "name": "tokenURI",
      "outputs": [
        {
          "internalType": "string",
          "name": "",
          "type": "string"
        }
      ],
      "stateMutability": "view",
      "type": "function"
    },
    {
      "inputs": [
        {
          "internalType": "address",
          "name": "from",
          "type": "address"
        },
        {
          "internalType": "address",
          "name": "to",
          "type": "address"
        },
        {
          "internalType": "uint256",
          "name": "tokenId",
          "type": "uint256"
        }
      ],
      "name": "transferFrom",
      "outputs": [],
      "stateMutability": "nonpayable",
      "type": "function"
    }
  ],
  "bytecode": "0x60a0604052600160808190526008553480156200001b57600080fd5b5060405162001c1a38038062001c1a8339810160408190526200003e91620001eb565b825183908390620000579060009060208501906200009a565b5080516200006d9060019060208401906200009a565b5050600680546001600160a01b0319166001600160a01b03939093169290921790915550620002c7915050565b828054620000a89062000274565b90600052602060002090601f016020900481019282620000cc576000855562000117565b82601f10620000e757805160ff191683800117855562000117565b8280016001018555821562000117579182015b8281111562000117578251825591602001919060010190620000fa565b506200012592915062000129565b5090565b5b808211156200012557600081556001016200012a565b600082601f83011262000151578081fd5b81516001600160401b03808211156200016e576200016e620002b1565b6040516020601f8401601f1916820181018381118382101715620001965762000196620002b1565b6040528382528584018101871015620001ad578485fd5b8492505b83831015620001d05785830181015182840182015291820191620001b1565b83831115620001e157848185840101525b5095945050505050565b60008060006060848603121562000200578283fd5b83516001600160401b038082111562000217578485fd5b620002258783880162000140565b945060208601519150808211156200023b578384fd5b506200024a8682870162000140565b604086015190935090506001600160a01b038116811462000269578182fd5b809150509250925092565b6002810460018216806200028957607f821691505b60208210811415620002ab57634e487b7160e01b600052602260045260246000fd5b50919050565b634e487b7160e01b600052604160045260246000fd5b61194380620002d76000396000f3fe608060405234801561001057600080fd5b50600436106101005760003560e01c806370a0823111610097578063b88d4fde11610066578063b88d4fde14610212578063bca6ce6414610225578063c87b56dd1461022d578063e985e9c51461024057610100565b806370a08231146101c457806395d89b41146101e4578063a0712d68146101ec578063a22cb465146101ff57610100565b806323b872dd116100d357806323b872dd1461017857806342842e0e1461018b57806342966c681461019e5780636352211e146101b157610100565b806301ffc9a71461010557806306fdde031461012e578063081812fc14610143578063095ea7b314610163575b600080fd5b610118610113366004611239565b610253565b6040516101259190611359565b60405180910390f35b610136610266565b6040516101259190611364565b610156610151366004611271565b6102f8565b60405161012591906112e4565b610176610171366004611210565b610344565b005b6101766101863660046110cf565b6103dc565b6101766101993660046110cf565b610414565b6101766101ac366004611271565b61042f565b6101566101bf366004611271565b6105b8565b6101d76101d2366004611083565b6105ed565b60405161012591906117d0565b610136610631565b6101d76101fa366004611271565b610640565b61017661020d3660046111d6565b6107a0565b61017661022036600461110a565b61086e565b6101566108ad565b61013661023b366004611271565b6108bc565b61011861024e36600461109d565b61093f565b600061025e8261096d565b90505b919050565b60606000805461027590611848565b80601f01602080910402602001604051908101604052809291908181526020018280546102a190611848565b80156102ee5780601f106102c3576101008083540402835291602001916102ee565b820191906000526020600020905b8154815290600101906020018083116102d157829003601f168201915b5050505050905090565b6000610303826109ad565b6103285760405162461bcd60e51b815260040161031f90611623565b60405180910390fd5b506000908152600460205260409020546001600160a01b031690565b600061034f826105b8565b9050806001600160a01b0316836001600160a01b031614156103835760405162461bcd60e51b815260040161031f90611707565b806001600160a01b03166103956109ca565b6001600160a01b031614806103b157506103b18161024e6109ca565b6103cd5760405162461bcd60e51b815260040161031f906114fe565b6103d783836109ce565b505050565b6103ed6103e76109ca565b82610a3c565b6104095760405162461bcd60e51b815260040161031f90611748565b6103d7838383610ac1565b6103d78383836040518060200160405280600081525061086e565b80158015906104695750600960006104456109ca565b6001600160a01b03166001600160a01b031681526020019081526020016000205481145b6104855760405162461bcd60e51b815260040161031f90611799565b61048e81610bee565b6009600061049a6109ca565b6001600160a01b0390811682526020820192909252604001600090812055600654166323b872dd306104ca6109ca565b600760006104d66109ca565b6001600160a01b03166001600160a01b03168152602001908152602001600020546040518463ffffffff1660e01b8152600401610515939291906112f8565b600060405180830381600087803b15801561052f57600080fd5b505af1158015610543573d6000803e3d6000fd5b50505050600760006105536109ca565b6001600160a01b03166001600160a01b0316815260200190815260200160002060009055806105806109ca565b6001600160a01b03167fcc16f5dbb4873280815c1ee09dbd06736cffcc184412cf7a71a0fdb75d397ca560405160405180910390a350565b6000818152600260205260408120546001600160a01b03168061025e5760405162461bcd60e51b815260040161031f906115a5565b60006001600160a01b0382166106155760405162461bcd60e51b815260040161031f9061155b565b506001600160a01b031660009081526003602052604090205490565b60606001805461027590611848565b60006009600061064e6109ca565b6001600160a01b03168152602081019190915260400160002054156106855760405162461bcd60e51b815260040161031f9061147b565b61068f6008610c95565b9050816007600061069e6109ca565b6001600160a01b039081168252602082019290925260400160002091909155600654166323b872dd6106ce6109ca565b30856040518463ffffffff1660e01b81526004016106ee939291906112f8565b600060405180830381600087803b15801561070857600080fd5b505af115801561071c573d6000803e3d6000fd5b50505050806009600061072d6109ca565b6001600160a01b031681526020810191909152604001600020556107586107526109ca565b82610c99565b806107616109ca565b6001600160a01b03167f0f6798a560793a54c3bcfe86a93cde1e73087d944c0ea20544137d412139688560405160405180910390a36102616008610cb7565b6107a86109ca565b6001600160a01b0316826001600160a01b031614156107d95760405162461bcd60e51b815260040161031f90611444565b80600560006107e66109ca565b6001600160a01b03908116825260208083019390935260409182016000908120918716808252919093529120805460ff19169215159290921790915561082a6109ca565b6001600160a01b03167f17307eab39ab6107e8899845ad3d59bd9653f200f220920489ca2b5937696c31836040516108629190611359565b60405180910390a35050565b61087f6108796109ca565b83610a3c565b61089b5760405162461bcd60e51b815260040161031f90611748565b6108a784848484610cc0565b50505050565b6006546001600160a01b031681565b60606108c7826109ad565b6108e35760405162461bcd60e51b815260040161031f906116b8565b60006108ed610cf3565b9050600081511161090d5760405180602001604052806000815250610938565b8061091784610d05565b6040516020016109289291906112b5565b6040516020818303038152906040525b9392505050565b6001600160a01b03918216600090815260056020908152604080832093909416825291909152205460ff1690565b60006001600160e01b031982166380ac58cd60e01b148061099e57506001600160e01b03198216635b5e139f60e01b145b8061025e575061025e82610e20565b6000908152600260205260409020546001600160a01b0316151590565b3390565b600081815260046020526040902080546001600160a01b0319166001600160a01b0384169081179091558190610a03826105b8565b6001600160a01b03167f8c5be1e5ebec7d5bd14f71427d1e84f3dd0314c0f7b2291e5b200ac8c7c3b92560405160405180910390a45050565b6000610a47826109ad565b610a635760405162461bcd60e51b815260040161031f906114b2565b6000610a6e836105b8565b9050806001600160a01b0316846001600160a01b03161480610aa95750836001600160a01b0316610a9e846102f8565b6001600160a01b0316145b80610ab95750610ab9818561093f565b949350505050565b826001600160a01b0316610ad4826105b8565b6001600160a01b031614610afa5760405162461bcd60e51b815260040161031f9061166f565b6001600160a01b038216610b205760405162461bcd60e51b815260040161031f90611400565b610b2b8383836103d7565b610b366000826109ce565b6001600160a01b0383166000908152600360205260408120805460019290610b5f908490611805565b90915550506001600160a01b0382166000908152600360205260408120805460019290610b8d9084906117d9565b909155505060008181526002602052604080822080546001600160a01b0319166001600160a01b0386811691821790925591518493918716917fddf252ad1be2c89b69c2b068fc378daa952ba7f163c4a11628f55a4df523b3ef91a4505050565b6000610bf9826105b8565b9050610c07816000846103d7565b610c126000836109ce565b6001600160a01b0381166000908152600360205260408120805460019290610c3b908490611805565b909155505060008281526002602052604080822080546001600160a01b0319169055518391906001600160a01b038416907fddf252ad1be2c89b69c2b068fc378daa952ba7f163c4a11628f55a4df523b3ef908390a45050565b5490565b610cb3828260405180602001604052806000815250610e39565b5050565b80546001019055565b610ccb848484610ac1565b610cd784848484610e6c565b6108a75760405162461bcd60e51b815260040161031f90611377565b60408051602081019091526000815290565b606081610d2a57506040805180820190915260018152600360fc1b6020820152610261565b8160005b8115610d545780610d3e81611883565b9150610d4d9050600a836117f1565b9150610d2e565b60008167ffffffffffffffff811115610d7d57634e487b7160e01b600052604160045260246000fd5b6040519080825280601f01601f191660200182016040528015610da7576020820181803683370190505b5090505b8415610ab957610dbc600183611805565b9150610dc9600a8661189e565b610dd49060306117d9565b60f81b818381518110610df757634e487b7160e01b600052603260045260246000fd5b60200101906001600160f81b031916908160001a905350610e19600a866117f1565b9450610dab565b6001600160e01b031981166301ffc9a760e01b14919050565b610e438383610f87565b610e506000848484610e6c565b6103d75760405162461bcd60e51b815260040161031f90611377565b6000610e80846001600160a01b0316611066565b15610f7c57836001600160a01b031663150b7a02610e9c6109ca565b8786866040518563ffffffff1660e01b8152600401610ebe949392919061131c565b602060405180830381600087803b158015610ed857600080fd5b505af1925050508015610f08575060408051601f3d908101601f19168201909252610f0591810190611255565b60015b610f62573d808015610f36576040519150601f19603f3d011682016040523d82523d6000602084013e610f3b565b606091505b508051610f5a5760405162461bcd60e51b815260040161031f90611377565b805181602001fd5b6001600160e01b031916630a85bd0160e11b149050610ab9565b506001949350505050565b6001600160a01b038216610fad5760405162461bcd60e51b815260040161031f906115ee565b610fb6816109ad565b15610fd35760405162461bcd60e51b815260040161031f906113c9565b610fdf600083836103d7565b6001600160a01b03821660009081526003602052604081208054600192906110089084906117d9565b909155505060008181526002602052604080822080546001600160a01b0319166001600160a01b03861690811790915590518392907fddf252ad1be2c89b69c2b068fc378daa952ba7f163c4a11628f55a4df523b3ef908290a45050565b3b151590565b80356001600160a01b038116811461026157600080fd5b600060208284031215611094578081fd5b6109388261106c565b600080604083850312156110af578081fd5b6110b88361106c565b91506110c66020840161106c565b90509250929050565b6000806000606084860312156110e3578081fd5b6110ec8461106c565b92506110fa6020850161106c565b9150604084013590509250925092565b6000806000806080858703121561111f578081fd5b6111288561106c565b9350602061113781870161106c565b935060408601359250606086013567ffffffffffffffff8082111561115a578384fd5b818801915088601f83011261116d578384fd5b81358181111561117f5761117f6118de565b604051601f8201601f19168101850183811182821017156111a2576111a26118de565b60405281815283820185018b10156111b8578586fd5b81858501868301379081019093019390935250939692955090935050565b600080604083850312156111e8578182fd5b6111f18361106c565b915060208301358015158114611205578182fd5b809150509250929050565b60008060408385031215611222578182fd5b61122b8361106c565b946020939093013593505050565b60006020828403121561124a578081fd5b8135610938816118f4565b600060208284031215611266578081fd5b8151610938816118f4565b600060208284031215611282578081fd5b5035919050565b600081518084526112a181602086016020860161181c565b601f01601f19169290920160200192915050565b600083516112c781846020880161181c565b8351908301906112db81836020880161181c565b01949350505050565b6001600160a01b0391909116815260200190565b6001600160a01b039384168152919092166020820152604081019190915260600190565b6001600160a01b038581168252841660208201526040810183905260806060820181905260009061134f90830184611289565b9695505050505050565b901515815260200190565b6000602082526109386020830184611289565b60208082526032908201527f4552433732313a207472616e7366657220746f206e6f6e20455243373231526560408201527131b2b4bb32b91034b6b83632b6b2b73a32b960711b606082015260800190565b6020808252601c908201527f4552433732313a20746f6b656e20616c7265616479206d696e74656400000000604082015260600190565b60208082526024908201527f4552433732313a207472616e7366657220746f20746865207a65726f206164646040820152637265737360e01b606082015260800190565b60208082526019908201527f4552433732313a20617070726f766520746f2063616c6c657200000000000000604082015260600190565b6020808252601c908201527f426574613a2073656e64657220686173206265656e20686f6c64657200000000604082015260600190565b6020808252602c908201527f4552433732313a206f70657261746f7220717565727920666f72206e6f6e657860408201526b34b9ba32b73a103a37b5b2b760a11b606082015260800190565b60208082526038908201527f4552433732313a20617070726f76652063616c6c6572206973206e6f74206f7760408201527f6e6572206e6f7220617070726f76656420666f7220616c6c0000000000000000606082015260800190565b6020808252602a908201527f4552433732313a2062616c616e636520717565727920666f7220746865207a65604082015269726f206164647265737360b01b606082015260800190565b60208082526029908201527f4552433732313a206f776e657220717565727920666f72206e6f6e657869737460408201526832b73a103a37b5b2b760b91b606082015260800190565b6020808252818101527f4552433732313a206d696e7420746f20746865207a65726f2061646472657373604082015260600190565b6020808252602c908201527f4552433732313a20617070726f76656420717565727920666f72206e6f6e657860408201526b34b9ba32b73a103a37b5b2b760a11b606082015260800190565b60208082526029908201527f4552433732313a207472616e73666572206f6620746f6b656e2074686174206960408201526839903737ba1037bbb760b91b606082015260800190565b6020808252602f908201527f4552433732314d657461646174613a2055524920717565727920666f72206e6f60408201526e3732bc34b9ba32b73a103a37b5b2b760891b606082015260800190565b60208082526021908201527f4552433732313a20617070726f76616c20746f2063757272656e74206f776e656040820152603960f91b606082015260800190565b60208082526031908201527f4552433732313a207472616e736665722063616c6c6572206973206e6f74206f6040820152701ddb995c881b9bdc88185c1c1c9bdd9959607a1b606082015260800190565b6020808252601a908201527f426574613a2073656e646572206973206e6f7420686f6c646572000000000000604082015260600190565b90815260200190565b600082198211156117ec576117ec6118b2565b500190565b600082611800576118006118c8565b500490565b600082821015611817576118176118b2565b500390565b60005b8381101561183757818101518382015260200161181f565b838111156108a75750506000910152565b60028104600182168061185c57607f821691505b6020821081141561187d57634e487b7160e01b600052602260045260246000fd5b50919050565b6000600019821415611897576118976118b2565b5060010190565b6000826118ad576118ad6118c8565b500690565b634e487b7160e01b600052601160045260246000fd5b634e487b7160e01b600052601260045260246000fd5b634e487b7160e01b600052604160045260246000fd5b6001600160e01b03198116811461190a57600080fd5b5056fea264697066735822122085f57ee2834cb69b5e5fa564ee9ad96c7254b5caac9fd83a20bc6b614782d17064736f6c63430008000033",
  "linkReferences": {},
  "deployedLinkReferences": {}
}